{
  "_format": "hh-sol-artifact-1",
  "contractName": "TOKEN",
  "sourceName": "contracts/TOKEN.sol",
  "abi": [
    {
      "inputs": [
        {
          "internalType": "address",
          "name": "_pancakeRouter",
          "type": "address"
        },
        {
          "internalType": "address payable",
          "name": "_safeWallet",
          "type": "address"
        }
      ],
      "stateMutability": "nonpayable",
      "type": "constructor"
    },
    {
      "anonymous": false,
      "inputs": [
        {
          "indexed": false,
          "internalType": "uint256",
          "name": "tokenAmount",
          "type": "uint256"
        },
        {
          "indexed": false,
          "internalType": "uint256",
          "name": "bnbAmount",
          "type": "uint256"
        }
      ],
      "name": "AddedLiquidity",
      "type": "event"
    },
    {
      "anonymous": false,
      "inputs": [
        {
          "indexed": true,
          "internalType": "address",
          "name": "owner",
          "type": "address"
        },
        {
          "indexed": true,
          "internalType": "address",
          "name": "spender",
          "type": "address"
        },
        {
          "indexed": false,
          "internalType": "uint256",
          "name": "value",
          "type": "uint256"
        }
      ],
      "name": "Approval",
      "type": "event"
    },
    {
      "anonymous": false,
      "inputs": [
        {
          "indexed": true,
          "internalType": "address",
          "name": "previousOwner",
          "type": "address"
        },
        {
          "indexed": true,
          "internalType": "address",
          "name": "newOwner",
          "type": "address"
        }
      ],
      "name": "OwnershipTransferred",
      "type": "event"
    },
    {
      "anonymous": false,
      "inputs": [
        {
          "indexed": true,
          "internalType": "bytes32",
          "name": "role",
          "type": "bytes32"
        },
        {
          "indexed": true,
          "internalType": "bytes32",
          "name": "previousAdminRole",
          "type": "bytes32"
        },
        {
          "indexed": true,
          "internalType": "bytes32",
          "name": "newAdminRole",
          "type": "bytes32"
        }
      ],
      "name": "RoleAdminChanged",
      "type": "event"
    },
    {
      "anonymous": false,
      "inputs": [
        {
          "indexed": true,
          "internalType": "bytes32",
          "name": "role",
          "type": "bytes32"
        },
        {
          "indexed": true,
          "internalType": "address",
          "name": "account",
          "type": "address"
        },
        {
          "indexed": true,
          "internalType": "address",
          "name": "sender",
          "type": "address"
        }
      ],
      "name": "RoleGranted",
      "type": "event"
    },
    {
      "anonymous": false,
      "inputs": [
        {
          "indexed": true,
          "internalType": "bytes32",
          "name": "role",
          "type": "bytes32"
        },
        {
          "indexed": true,
          "internalType": "address",
          "name": "account",
          "type": "address"
        },
        {
          "indexed": true,
          "internalType": "address",
          "name": "sender",
          "type": "address"
        }
      ],
      "name": "RoleRevoked",
      "type": "event"
    },
    {
      "anonymous": false,
      "inputs": [
        {
          "indexed": false,
          "internalType": "uint256",
          "name": "amount",
          "type": "uint256"
        }
      ],
      "name": "SwappedSafeWalletBalance",
      "type": "event"
    },
    {
      "anonymous": false,
      "inputs": [
        {
          "indexed": true,
          "internalType": "address",
          "name": "from",
          "type": "address"
        },
        {
          "indexed": true,
          "internalType": "address",
          "name": "to",
          "type": "address"
        },
        {
          "indexed": false,
          "internalType": "uint256",
          "name": "value",
          "type": "uint256"
        }
      ],
      "name": "Transfer",
      "type": "event"
    },
    {
      "inputs": [],
      "name": "DAO",
      "outputs": [
        {
          "internalType": "bytes32",
          "name": "",
          "type": "bytes32"
        }
      ],
      "stateMutability": "view",
      "type": "function"
    },
    {
      "inputs": [],
      "name": "DEFAULT_ADMIN_ROLE",
      "outputs": [
        {
          "internalType": "bytes32",
          "name": "",
          "type": "bytes32"
        }
      ],
      "stateMutability": "view",
      "type": "function"
    },
    {
      "inputs": [
        {
          "internalType": "address",
          "name": "",
          "type": "address"
        }
      ],
      "name": "_automatedMarketMakerPairs",
      "outputs": [
        {
          "internalType": "bool",
          "name": "",
          "type": "bool"
        }
      ],
      "stateMutability": "view",
      "type": "function"
    },
    {
      "inputs": [
        {
          "internalType": "address",
          "name": "owner",
          "type": "address"
        },
        {
          "internalType": "address",
          "name": "spender",
          "type": "address"
        }
      ],
      "name": "allowance",
      "outputs": [
        {
          "internalType": "uint256",
          "name": "",
          "type": "uint256"
        }
      ],
      "stateMutability": "view",
      "type": "function"
    },
    {
      "inputs": [
        {
          "internalType": "address",
          "name": "spender",
          "type": "address"
        },
        {
          "internalType": "uint256",
          "name": "amount",
          "type": "uint256"
        }
      ],
      "name": "approve",
      "outputs": [
        {
          "internalType": "bool",
          "name": "",
          "type": "bool"
        }
      ],
      "stateMutability": "nonpayable",
      "type": "function"
    },
    {
      "inputs": [
        {
          "internalType": "address",
          "name": "account",
          "type": "address"
        }
      ],
      "name": "balanceOf",
      "outputs": [
        {
          "internalType": "uint256",
          "name": "",
          "type": "uint256"
        }
      ],
      "stateMutability": "view",
      "type": "function"
    },
    {
      "inputs": [
        {
          "internalType": "address",
          "name": "_user",
          "type": "address"
        },
        {
          "internalType": "bool",
          "name": "_state",
          "type": "bool"
        }
      ],
      "name": "blacklistDAO",
      "outputs": [],
      "stateMutability": "nonpayable",
      "type": "function"
    },
    {
      "inputs": [
        {
          "internalType": "address",
          "name": "_from",
          "type": "address"
        },
        {
          "internalType": "uint256",
          "name": "_amount",
          "type": "uint256"
        }
      ],
      "name": "burnDAO",
      "outputs": [],
      "stateMutability": "nonpayable",
      "type": "function"
    },
    {
      "inputs": [],
      "name": "buyingFee",
      "outputs": [
        {
          "internalType": "uint256",
          "name": "",
          "type": "uint256"
        }
      ],
      "stateMutability": "view",
      "type": "function"
    },
    {
      "inputs": [
        {
          "internalType": "address",
          "name": "_newDAO",
          "type": "address"
        }
      ],
      "name": "changeDAO",
      "outputs": [],
      "stateMutability": "nonpayable",
      "type": "function"
    },
    {
      "inputs": [],
      "name": "decimals",
      "outputs": [
        {
          "internalType": "uint8",
          "name": "",
          "type": "uint8"
        }
      ],
      "stateMutability": "view",
      "type": "function"
    },
    {
      "inputs": [
        {
          "internalType": "address",
          "name": "spender",
          "type": "address"
        },
        {
          "internalType": "uint256",
          "name": "subtractedValue",
          "type": "uint256"
        }
      ],
      "name": "decreaseAllowance",
      "outputs": [
        {
          "internalType": "bool",
          "name": "",
          "type": "bool"
        }
      ],
      "stateMutability": "nonpayable",
      "type": "function"
    },
    {
      "inputs": [],
      "name": "enableSwappingDAO",
      "outputs": [],
      "stateMutability": "nonpayable",
      "type": "function"
    },
    {
      "inputs": [
        {
          "internalType": "address",
          "name": "_account",
          "type": "address"
        },
        {
          "internalType": "bool",
          "name": "_state",
          "type": "bool"
        }
      ],
      "name": "excludeFromFeesDAO",
      "outputs": [],
      "stateMutability": "nonpayable",
      "type": "function"
    },
    {
      "inputs": [
        {
          "internalType": "bytes32",
          "name": "role",
          "type": "bytes32"
        }
      ],
      "name": "getRoleAdmin",
      "outputs": [
        {
          "internalType": "bytes32",
          "name": "",
          "type": "bytes32"
        }
      ],
      "stateMutability": "view",
      "type": "function"
    },
    {
      "inputs": [
        {
          "internalType": "bytes32",
          "name": "role",
          "type": "bytes32"
        },
        {
          "internalType": "address",
          "name": "account",
          "type": "address"
        }
      ],
      "name": "grantRole",
      "outputs": [],
      "stateMutability": "nonpayable",
      "type": "function"
    },
    {
      "inputs": [
        {
          "internalType": "bytes32",
          "name": "role",
          "type": "bytes32"
        },
        {
          "internalType": "address",
          "name": "account",
          "type": "address"
        }
      ],
      "name": "hasRole",
      "outputs": [
        {
          "internalType": "bool",
          "name": "",
          "type": "bool"
        }
      ],
      "stateMutability": "view",
      "type": "function"
    },
    {
      "inputs": [
        {
          "internalType": "address",
          "name": "spender",
          "type": "address"
        },
        {
          "internalType": "uint256",
          "name": "addedValue",
          "type": "uint256"
        }
      ],
      "name": "increaseAllowance",
      "outputs": [
        {
          "internalType": "bool",
          "name": "",
          "type": "bool"
        }
      ],
      "stateMutability": "nonpayable",
      "type": "function"
    },
    {
      "inputs": [],
      "name": "initialSupply",
      "outputs": [
        {
          "internalType": "uint256",
          "name": "",
          "type": "uint256"
        }
      ],
      "stateMutability": "view",
      "type": "function"
    },
    {
      "inputs": [
        {
          "internalType": "address",
          "name": "_user",
          "type": "address"
        }
      ],
      "name": "isBlacklisted",
      "outputs": [
        {
          "internalType": "bool",
          "name": "",
          "type": "bool"
        }
      ],
      "stateMutability": "view",
      "type": "function"
    },
    {
      "inputs": [],
      "name": "liquidityFeeBalance",
      "outputs": [
        {
          "internalType": "uint256",
          "name": "",
          "type": "uint256"
        }
      ],
      "stateMutability": "view",
      "type": "function"
    },
    {
      "inputs": [],
      "name": "manualLiquifyDAO",
      "outputs": [],
      "stateMutability": "nonpayable",
      "type": "function"
    },
    {
      "inputs": [],
      "name": "manualSafeFeeSwapDAO",
      "outputs": [],
      "stateMutability": "nonpayable",
      "type": "function"
    },
    {
      "inputs": [],
      "name": "minimumLiquidityFeeBalanceToSwap",
      "outputs": [
        {
          "internalType": "uint256",
          "name": "",
          "type": "uint256"
        }
      ],
      "stateMutability": "view",
      "type": "function"
    },
    {
      "inputs": [],
      "name": "minimumSafeWalletBalanceToSwap",
      "outputs": [
        {
          "internalType": "uint256",
          "name": "",
          "type": "uint256"
        }
      ],
      "stateMutability": "view",
      "type": "function"
    },
    {
      "inputs": [
        {
          "internalType": "address",
          "name": "_to",
          "type": "address"
        },
        {
          "internalType": "uint256",
          "name": "_amount",
          "type": "uint256"
        }
      ],
      "name": "mintDAO",
      "outputs": [],
      "stateMutability": "nonpayable",
      "type": "function"
    },
    {
      "inputs": [],
      "name": "name",
      "outputs": [
        {
          "internalType": "string",
          "name": "",
          "type": "string"
        }
      ],
      "stateMutability": "view",
      "type": "function"
    },
    {
      "inputs": [],
      "name": "owner",
      "outputs": [
        {
          "internalType": "address",
          "name": "",
          "type": "address"
        }
      ],
      "stateMutability": "view",
      "type": "function"
    },
    {
      "inputs": [],
      "name": "pancakeRouter",
      "outputs": [
        {
          "internalType": "contract IUniswapV2Router02",
          "name": "",
          "type": "address"
        }
      ],
      "stateMutability": "view",
      "type": "function"
    },
    {
      "inputs": [],
      "name": "pancakeTokenBnbPair",
      "outputs": [
        {
          "internalType": "address",
          "name": "",
          "type": "address"
        }
      ],
      "stateMutability": "view",
      "type": "function"
    },
    {
      "inputs": [],
      "name": "renounceOwnership",
      "outputs": [],
      "stateMutability": "nonpayable",
      "type": "function"
    },
    {
      "inputs": [
        {
          "internalType": "bytes32",
          "name": "role",
          "type": "bytes32"
        },
        {
          "internalType": "address",
          "name": "account",
          "type": "address"
        }
      ],
      "name": "renounceRole",
      "outputs": [],
      "stateMutability": "nonpayable",
      "type": "function"
    },
    {
      "inputs": [
        {
          "internalType": "address",
          "name": "_DaoToRevoke",
          "type": "address"
        }
      ],
      "name": "revokeDAO",
      "outputs": [],
      "stateMutability": "nonpayable",
      "type": "function"
    },
    {
      "inputs": [
        {
          "internalType": "bytes32",
          "name": "role",
          "type": "bytes32"
        },
        {
          "internalType": "address",
          "name": "account",
          "type": "address"
        }
      ],
      "name": "revokeRole",
      "outputs": [],
      "stateMutability": "nonpayable",
      "type": "function"
    },
    {
      "inputs": [],
      "name": "safeFeePercentage",
      "outputs": [
        {
          "internalType": "uint256",
          "name": "",
          "type": "uint256"
        }
      ],
      "stateMutability": "view",
      "type": "function"
    },
    {
      "inputs": [],
      "name": "safeWallet",
      "outputs": [
        {
          "internalType": "address payable",
          "name": "",
          "type": "address"
        }
      ],
      "stateMutability": "view",
      "type": "function"
    },
    {
      "inputs": [],
      "name": "safeWalletBalance",
      "outputs": [
        {
          "internalType": "uint256",
          "name": "",
          "type": "uint256"
        }
      ],
      "stateMutability": "view",
      "type": "function"
    },
    {
      "inputs": [],
      "name": "sellingFee",
      "outputs": [
        {
          "internalType": "uint256",
          "name": "",
          "type": "uint256"
        }
      ],
      "stateMutability": "view",
      "type": "function"
    },
    {
      "inputs": [
        {
          "internalType": "address",
          "name": "_pair",
          "type": "address"
        },
        {
          "internalType": "bool",
          "name": "_value",
          "type": "bool"
        }
      ],
      "name": "setAutomatedMarketMakerPairDAO",
      "outputs": [],
      "stateMutability": "nonpayable",
      "type": "function"
    },
    {
      "inputs": [
        {
          "internalType": "uint256",
          "name": "_buyingFee",
          "type": "uint256"
        }
      ],
      "name": "setBuyingFeeDAO",
      "outputs": [],
      "stateMutability": "nonpayable",
      "type": "function"
    },
    {
      "inputs": [
        {
          "internalType": "uint256",
          "name": "_minimumLiquidityFeeBalanceToSwap",
          "type": "uint256"
        }
      ],
      "name": "setMinimumLiquidityFeeBalanceToSwapDAO",
      "outputs": [],
      "stateMutability": "nonpayable",
      "type": "function"
    },
    {
      "inputs": [
        {
          "internalType": "uint256",
          "name": "_minimumSafeWalletBalanceToSwap",
          "type": "uint256"
        }
      ],
      "name": "setMinimumSafeWalletBalanceToSwapDAO",
      "outputs": [],
      "stateMutability": "nonpayable",
      "type": "function"
    },
    {
      "inputs": [
        {
          "internalType": "uint256",
          "name": "_safeFeePercentage",
          "type": "uint256"
        }
      ],
      "name": "setSafeFeePercentageDAO",
      "outputs": [],
      "stateMutability": "nonpayable",
      "type": "function"
    },
    {
      "inputs": [
        {
          "internalType": "address payable",
          "name": "_safeWallet",
          "type": "address"
        }
      ],
      "name": "setSafeWalletDAO",
      "outputs": [],
      "stateMutability": "nonpayable",
      "type": "function"
    },
    {
      "inputs": [
        {
          "internalType": "uint256",
          "name": "_sellingFee",
          "type": "uint256"
        }
      ],
      "name": "setSellingFeeDAO",
      "outputs": [],
      "stateMutability": "nonpayable",
      "type": "function"
    },
    {
      "inputs": [],
      "name": "stopSwappingDAO",
      "outputs": [],
      "stateMutability": "nonpayable",
      "type": "function"
    },
    {
      "inputs": [
        {
          "internalType": "bytes4",
          "name": "interfaceId",
          "type": "bytes4"
        }
      ],
      "name": "supportsInterface",
      "outputs": [
        {
          "internalType": "bool",
          "name": "",
          "type": "bool"
        }
      ],
      "stateMutability": "view",
      "type": "function"
    },
    {
      "inputs": [],
      "name": "swapEnabled",
      "outputs": [
        {
          "internalType": "bool",
          "name": "",
          "type": "bool"
        }
      ],
      "stateMutability": "view",
      "type": "function"
    },
    {
      "inputs": [],
      "name": "symbol",
      "outputs": [
        {
          "internalType": "string",
          "name": "",
          "type": "string"
        }
      ],
      "stateMutability": "view",
      "type": "function"
    },
    {
      "inputs": [],
      "name": "tokenDAO",
      "outputs": [
        {
          "internalType": "address",
          "name": "",
          "type": "address"
        }
      ],
      "stateMutability": "view",
      "type": "function"
    },
    {
      "inputs": [],
      "name": "totalSupply",
      "outputs": [
        {
          "internalType": "uint256",
          "name": "",
          "type": "uint256"
        }
      ],
      "stateMutability": "view",
      "type": "function"
    },
    {
      "inputs": [
        {
          "internalType": "address",
          "name": "recipient",
          "type": "address"
        },
        {
          "internalType": "uint256",
          "name": "amount",
          "type": "uint256"
        }
      ],
      "name": "transfer",
      "outputs": [
        {
          "internalType": "bool",
          "name": "",
          "type": "bool"
        }
      ],
      "stateMutability": "nonpayable",
      "type": "function"
    },
    {
      "inputs": [
        {
          "internalType": "address",
          "name": "sender",
          "type": "address"
        },
        {
          "internalType": "address",
          "name": "recipient",
          "type": "address"
        },
        {
          "internalType": "uint256",
          "name": "amount",
          "type": "uint256"
        }
      ],
      "name": "transferFrom",
      "outputs": [
        {
          "internalType": "bool",
          "name": "",
          "type": "bool"
        }
      ],
      "stateMutability": "nonpayable",
      "type": "function"
    },
    {
      "inputs": [
        {
          "internalType": "address",
          "name": "newOwner",
          "type": "address"
        }
      ],
      "name": "transferOwnership",
      "outputs": [],
      "stateMutability": "nonpayable",
      "type": "function"
    },
    {
      "inputs": [
        {
          "internalType": "uint256",
          "name": "_amount",
          "type": "uint256"
        }
      ],
      "name": "withdrawDAO",
      "outputs": [],
      "stateMutability": "nonpayable",
      "type": "function"
    },
    {
      "inputs": [
        {
          "internalType": "address",
          "name": "_erc20",
          "type": "address"
        },
        {
          "internalType": "uint256",
          "name": "_amount",
          "type": "uint256"
        }
      ],
      "name": "withdrawERC20DAO",
      "outputs": [],
      "stateMutability": "nonpayable",
      "type": "function"
    },
    {
      "stateMutability": "payable",
      "type": "receive"
    }
  ],
  "bytecode": "0x60806040526a0e0fe3d8bb9bc7b10000006009556000600f819055601081905568056bc75e2d6310000060118190556012556013805462ffffff1916600117905560145560646015556103846016553480156200005b57600080fd5b5060405162003553380380620035538339810160408190526200007e9162000a4e565b604080518082018252600a8152692a32b9ba102a37b5b2b760b11b6020808301918252835180850190945260058452642a27a5a2a760d91b908401528151919291620000cd9160039162000989565b508051620000e390600490602084019062000989565b50505062000100620000fa620003a660201b60201c565b620003aa565b600e80546001600160a01b0319166001600160a01b0383161790556009546200012b903390620003fc565b62000138600033620004f4565b620001647fd0a4ad96d49edb1c33461cebc6fb2609190f32c904e3c3f5877edb4488dee91e3362000500565b600780546001600160a01b0319166001600160a01b0384169081179091556040805163c45a015560e01b8152905163c45a015591600480820192602092909190829003018186803b158015620001b957600080fd5b505afa158015620001ce573d6000803e3d6000fd5b505050506040513d601f19601f82011682018060405250810190620001f4919062000a2f565b6001600160a01b031663c9c6539630600760009054906101000a90046001600160a01b03166001600160a01b031663ad5c46486040518163ffffffff1660e01b815260040160206040518083038186803b1580156200025257600080fd5b505afa15801562000267573d6000803e3d6000fd5b505050506040513d601f19601f820116820180604052508101906200028d919062000a2f565b6040516001600160e01b031960e085901b1681526001600160a01b03928316600482015291166024820152604401602060405180830381600087803b158015620002d657600080fd5b505af1158015620002eb573d6000803e3d6000fd5b505050506040513d601f19601f8201168201806040525081019062000311919062000a2f565b600a80546001600160a01b0319166001600160a01b03928316178155336000908152600c60209081526040808320805460ff19908116600190811790925530855282852080548216831790557f13649b2456f1b42fef0f0040b3aaeabcd21a76a0f3f5defd4f583839455116e8805482168317905594549095168352600d909152902080549091169091179055505062000c30565b3390565b600580546001600160a01b038381166001600160a01b0319831681179093556040519116919082907f8be0079c531659141344cd1fd0a4f28419497f9722a3daafe3b4186f6b6457e090600090a35050565b6001600160a01b038216620004585760405162461bcd60e51b815260206004820152601f60248201527f45524332303a206d696e7420746f20746865207a65726f20616464726573730060448201526064015b60405180910390fd5b62000466600083836200052f565b80600260008282546200047a919062000b3a565b90915550506001600160a01b03821660009081526020819052604081208054839290620004a990849062000b3a565b90915550506040518181526001600160a01b038316906000907fddf252ad1be2c89b69c2b068fc378daa952ba7f163c4a11628f55a4df523b3ef9060200160405180910390a35b5050565b620004f082826200064c565b6000828152600660205260409020600101546200051e8133620006f0565b6200052a83836200064c565b505050565b6001600160a01b0383166000908152600b602052604090205460ff1615620005b05760405162461bcd60e51b815260206004820152602d60248201527f546f6b656e207472616e7366657220726566757365642e2053656e646572206960448201526c1cc8189b1858dadb1a5cdd1959609a1b60648201526084016200044f565b6001600160a01b0382166000908152600b602052604090205460ff1615620006345760405162461bcd60e51b815260206004820152603060248201527f546f6b656e207472616e7366657220726566757365642e20526563697069656e60448201526f1d081a5cc8189b1858dadb1a5cdd195960821b60648201526084016200044f565b6200052a8383836200052a60201b62000d611760201c565b60008281526006602090815260408083206001600160a01b038516845290915290205460ff16620004f05760008281526006602090815260408083206001600160a01b03851684529091529020805460ff19166001179055620006ac3390565b6001600160a01b0316816001600160a01b0316837f2f8788117e7eff1d82e926ec794901d17c78024a50270940304540a733656f0d60405160405180910390a45050565b60008281526006602090815260408083206001600160a01b038516845290915290205460ff16620004f0576200073c816001600160a01b031660146200078d60201b620013f41760201c565b62000752836020620013f46200078d821b17811c565b6040516020016200076592919062000a8c565b60408051601f198184030181529082905262461bcd60e51b82526200044f9160040162000b05565b606060006200079e83600262000b55565b620007ab90600262000b3a565b6001600160401b03811115620007d157634e487b7160e01b600052604160045260246000fd5b6040519080825280601f01601f191660200182016040528015620007fc576020820181803683370190505b509050600360fc1b816000815181106200082657634e487b7160e01b600052603260045260246000fd5b60200101906001600160f81b031916908160001a905350600f60fb1b816001815181106200086457634e487b7160e01b600052603260045260246000fd5b60200101906001600160f81b031916908160001a90535060006200088a84600262000b55565b6200089790600162000b3a565b90505b600181111562000931576f181899199a1a9b1b9c1cb0b131b232b360811b85600f1660108110620008db57634e487b7160e01b600052603260045260246000fd5b1a60f81b8282815181106200090057634e487b7160e01b600052603260045260246000fd5b60200101906001600160f81b031916908160001a90535060049490941c93620009298162000baa565b90506200089a565b508315620009825760405162461bcd60e51b815260206004820181905260248201527f537472696e67733a20686578206c656e67746820696e73756666696369656e7460448201526064016200044f565b9392505050565b828054620009979062000bc4565b90600052602060002090601f016020900481019282620009bb576000855562000a06565b82601f10620009d657805160ff191683800117855562000a06565b8280016001018555821562000a06579182015b8281111562000a06578251825591602001919060010190620009e9565b5062000a1492915062000a18565b5090565b5b8082111562000a14576000815560010162000a19565b60006020828403121562000a41578081fd5b8151620009828162000c17565b6000806040838503121562000a61578081fd5b825162000a6e8162000c17565b602084015190925062000a818162000c17565b809150509250929050565b7f416363657373436f6e74726f6c3a206163636f756e742000000000000000000081526000835162000ac681601785016020880162000b77565b7001034b99036b4b9b9b4b733903937b6329607d1b601791840191820152835162000af981602884016020880162000b77565b01602801949350505050565b602081526000825180602084015262000b2681604085016020870162000b77565b601f01601f19169190910160400192915050565b6000821982111562000b505762000b5062000c01565b500190565b600081600019048311821515161562000b725762000b7262000c01565b500290565b60005b8381101562000b9457818101518382015260200162000b7a565b8381111562000ba4576000848401525b50505050565b60008162000bbc5762000bbc62000c01565b506000190190565b600181811c9082168062000bd957607f821691505b6020821081141562000bfb57634e487b7160e01b600052602260045260246000fd5b50919050565b634e487b7160e01b600052601160045260246000fd5b6001600160a01b038116811462000c2d57600080fd5b50565b6129138062000c406000396000f3fe60806040526004361061036f5760003560e01c8063742c462a116101c6578063b42cde33116100f7578063dcd7c1ca11610095578063ec7d76721161006f578063ec7d7672146109e0578063f2fde38b14610a00578063fad03ab514610a20578063fe575a8714610a4057600080fd5b8063dcd7c1ca14610965578063dd56ba0114610985578063dd62ed3e1461099a57600080fd5b8063c7b94b76116100d1578063c7b94b76146108f9578063c9668ce214610919578063cbd8dc0a1461092f578063d547741f1461094557600080fd5b8063b42cde33146108a4578063c21ebd07146108c4578063c27bb1f3146108e457600080fd5b8063a217fddf11610164578063a9059cbb1161013e578063a9059cbb14610814578063a9b232d914610834578063aee1591914610864578063b3b9a5061461088457600080fd5b8063a217fddf146107c9578063a457c2d7146107de578063a68162ac146107fe57600080fd5b80638da5cb5b116101a05780638da5cb5b1461075457806391d148541461077257806395d89b411461079257806398fabd3a146107a757600080fd5b8063742c462a1461070957806388cfce561461071f5780638cbbab721461073f57600080fd5b8063313ce567116102a05780634a83832d1161023e5780635f827bb4116102185780635f827bb4146106845780636ddd1713146106a457806370a08231146106be578063715018a6146106f457600080fd5b80634a83832d14610638578063558b7def146106585780635a0c37cc1461066e57600080fd5b8063395093511161027a57806339509351146105c357806340d7d98e146105e3578063415d50a4146105f85780634740fea21461061857600080fd5b8063313ce5671461057157806336568abe1461058d578063378dc3dc146105ad57600080fd5b806318160ddd1161030d57806323b872dd116102e757806323b872dd146104e1578063248a9ca31461050157806326a4a5c2146105315780632f2ff15d1461055157600080fd5b806318160ddd1461048c5780631891201e146104ab5780631d007f5f146104c157600080fd5b8063095ea7b311610349578063095ea7b3146103f45780630cf72dad14610414578063167bb3331461043457806316e25f451461045457600080fd5b80630119067d1461037b57806301ffc9a71461039d57806306fdde03146103d257600080fd5b3661037657005b600080fd5b34801561038757600080fd5b5061039b61039636600461257b565b610a79565b005b3480156103a957600080fd5b506103bd6103b836600461262b565b610abe565b60405190151581526020015b60405180910390f35b3480156103de57600080fd5b506103e7610af5565b6040516103c991906126f5565b34801561040057600080fd5b506103bd61040f3660046125a8565b610b87565b34801561042057600080fd5b5061039b61042f3660046124cb565b610b9d565b34801561044057600080fd5b5061039b61044f3660046125ef565b610bd9565b34801561046057600080fd5b50600a54610474906001600160a01b031681565b6040516001600160a01b0390911681526020016103c9565b34801561049857600080fd5b506002545b6040519081526020016103c9565b3480156104b757600080fd5b5061049d60155481565b3480156104cd57600080fd5b5061039b6104dc3660046124cb565b610bf8565b3480156104ed57600080fd5b506103bd6104fc36600461253b565b610c6d565b34801561050d57600080fd5b5061049d61051c3660046125ef565b60009081526006602052604090206001015490565b34801561053d57600080fd5b5061039b61054c3660046125ef565b610d1c565b34801561055d57600080fd5b5061039b61056c366004612607565b610d3b565b34801561057d57600080fd5b50604051601281526020016103c9565b34801561059957600080fd5b5061039b6105a8366004612607565b610d66565b3480156105b957600080fd5b5061049d60095481565b3480156105cf57600080fd5b506103bd6105de3660046125a8565b610de0565b3480156105ef57600080fd5b5061039b610e1c565b34801561060457600080fd5b5061039b6106133660046125a8565b610e42565b34801561062457600080fd5b5061039b6106333660046125ef565b610e65565b34801561064457600080fd5b5061039b6106533660046125a8565b610e84565b34801561066457600080fd5b5061049d60115481565b34801561067a57600080fd5b5061049d60165481565b34801561069057600080fd5b5061039b61069f3660046125ef565b610f23565b3480156106b057600080fd5b506013546103bd9060ff1681565b3480156106ca57600080fd5b5061049d6106d93660046124cb565b6001600160a01b031660009081526020819052604090205490565b34801561070057600080fd5b5061039b610f69565b34801561071557600080fd5b5061049d600f5481565b34801561072b57600080fd5b50600e54610474906001600160a01b031681565b34801561074b57600080fd5b5061039b610fcf565b34801561076057600080fd5b506005546001600160a01b0316610474565b34801561077e57600080fd5b506103bd61078d366004612607565b610ff8565b34801561079e57600080fd5b506103e7611023565b3480156107b357600080fd5b5061049d6000805160206128be83398151915281565b3480156107d557600080fd5b5061049d600081565b3480156107ea57600080fd5b506103bd6107f93660046125a8565b611032565b34801561080a57600080fd5b5061049d60125481565b34801561082057600080fd5b506103bd61082f3660046125a8565b6110cb565b34801561084057600080fd5b506103bd61084f3660046124cb565b600d6020526000908152604090205460ff1681565b34801561087057600080fd5b5061039b61087f3660046124cb565b6110d8565b34801561089057600080fd5b5061039b61089f3660046125a8565b611109565b3480156108b057600080fd5b50600854610474906001600160a01b031681565b3480156108d057600080fd5b50600754610474906001600160a01b031681565b3480156108f057600080fd5b5061039b61112c565b34801561090557600080fd5b5061039b6109143660046125ef565b61116a565b34801561092557600080fd5b5061049d60105481565b34801561093b57600080fd5b5061049d60145481565b34801561095157600080fd5b5061039b610960366004612607565b611189565b34801561097157600080fd5b5061039b61098036600461257b565b6111af565b34801561099157600080fd5b5061039b6111f4565b3480156109a657600080fd5b5061049d6109b5366004612503565b6001600160a01b03918216600090815260016020908152604080832093909416825291909152205490565b3480156109ec57600080fd5b5061039b6109fb36600461257b565b611235565b348015610a0c57600080fd5b5061039b610a1b3660046124cb565b61130a565b348015610a2c57600080fd5b5061039b610a3b3660046125ef565b6113d5565b348015610a4c57600080fd5b506103bd610a5b3660046124cb565b6001600160a01b03166000908152600b602052604090205460ff1690565b6000805160206128be833981519152610a9281336115dd565b506001600160a01b03919091166000908152600b60205260409020805460ff1916911515919091179055565b60006001600160e01b03198216637965db0b60e01b1480610aef57506301ffc9a760e01b6001600160e01b03198316145b92915050565b606060038054610b0490612849565b80601f0160208091040260200160405190810160405280929190818152602001828054610b3090612849565b8015610b7d5780601f10610b5257610100808354040283529160200191610b7d565b820191906000526020600020905b815481529060010190602001808311610b6057829003601f168201915b5050505050905090565b6000610b94338484611641565b50600192915050565b6000805160206128be833981519152610bb681336115dd565b50600e80546001600160a01b0319166001600160a01b0392909216919091179055565b6000805160206128be833981519152610bf281336115dd565b50601155565b6000805160206128be833981519152610c1181336115dd565b600854610c36906000805160206128be833981519152906001600160a01b0316611189565b600880546001600160a01b0319166001600160a01b038416179055610c696000805160206128be83398151915283610d3b565b5050565b6000610c7a848484611765565b6001600160a01b038416600090815260016020908152604080832033845290915290205482811015610d045760405162461bcd60e51b815260206004820152602860248201527f45524332303a207472616e7366657220616d6f756e74206578636565647320616044820152676c6c6f77616e636560c01b60648201526084015b60405180910390fd5b610d118533858403611641565b506001949350505050565b6000805160206128be833981519152610d3581336115dd565b50601455565b600082815260066020526040902060010154610d5781336115dd565b610d618383611a42565b505050565b6001600160a01b0381163314610dd65760405162461bcd60e51b815260206004820152602f60248201527f416363657373436f6e74726f6c3a2063616e206f6e6c792072656e6f756e636560448201526e103937b632b9903337b91039b2b63360891b6064820152608401610cfb565b610c698282611ac8565b3360008181526001602090815260408083206001600160a01b03871684529091528120549091610b94918590610e17908690612798565b611641565b6000805160206128be833981519152610e3581336115dd565b506013805460ff19169055565b6000805160206128be833981519152610e5b81336115dd565b610d618383611b2f565b6000805160206128be833981519152610e7e81336115dd565b50601255565b6000805160206128be833981519152610e9d81336115dd565b60405163a9059cbb60e01b8152336004820152602481018390526001600160a01b0384169063a9059cbb90604401602060405180830381600087803b158015610ee557600080fd5b505af1158015610ef9573d6000803e3d6000fd5b505050506040513d601f19601f82011682018060405250810190610f1d91906125d3565b50505050565b6000805160206128be833981519152610f3c81336115dd565b604051339083156108fc029084906000818181858888f19350505050158015610d61573d6000803e3d6000fd5b6005546001600160a01b03163314610fc35760405162461bcd60e51b815260206004820181905260248201527f4f776e61626c653a2063616c6c6572206973206e6f7420746865206f776e65726044820152606401610cfb565b610fcd6000611c89565b565b6000805160206128be833981519152610fe881336115dd565b506013805460ff19166001179055565b60009182526006602090815260408084206001600160a01b0393909316845291905290205460ff1690565b606060048054610b0490612849565b3360009081526001602090815260408083206001600160a01b0386168452909152812054828110156110b45760405162461bcd60e51b815260206004820152602560248201527f45524332303a2064656372656173656420616c6c6f77616e63652062656c6f77604482015264207a65726f60d81b6064820152608401610cfb565b6110c13385858403611641565b5060019392505050565b6000610b94338484611765565b6000805160206128be8339815191526110f181336115dd565b610c696000805160206128be83398151915283611189565b6000805160206128be83398151915261112281336115dd565b610d618383611cdb565b6000805160206128be83398151915261114581336115dd565b6013805461ff00191661010017905561115c611dc6565b506013805461ff0019169055565b6000805160206128be83398151915261118381336115dd565b50601655565b6000828152600660205260409020600101546111a581336115dd565b610d618383611ac8565b6000805160206128be8339815191526111c881336115dd565b506001600160a01b03919091166000908152600c60205260409020805460ff1916911515919091179055565b6000805160206128be83398151915261120d81336115dd565b6013805462ff0000191662010000179055611226611ec1565b506013805462ff000019169055565b6000805160206128be83398151915261124e81336115dd565b600a546001600160a01b03848116911614156112e15760405162461bcd60e51b815260206004820152604660248201527f54686520544f4b454e202f20424e4220706169722063616e6e6f74206265207260448201527f656d6f7665642066726f6d205f6175746f6d617465644d61726b65744d616b6560648201526572506169727360d01b608482015260a401610cfb565b6001600160a01b0383166000908152600d60205260409020805460ff1916831515179055505050565b6005546001600160a01b031633146113645760405162461bcd60e51b815260206004820181905260248201527f4f776e61626c653a2063616c6c6572206973206e6f7420746865206f776e65726044820152606401610cfb565b6001600160a01b0381166113c95760405162461bcd60e51b815260206004820152602660248201527f4f776e61626c653a206e6577206f776e657220697320746865207a65726f206160448201526564647265737360d01b6064820152608401610cfb565b6113d281611c89565b50565b6000805160206128be8339815191526113ee81336115dd565b50601555565b606060006114038360026127d0565b61140e906002612798565b67ffffffffffffffff81111561143457634e487b7160e01b600052604160045260246000fd5b6040519080825280601f01601f19166020018201604052801561145e576020820181803683370190505b509050600360fc1b8160008151811061148757634e487b7160e01b600052603260045260246000fd5b60200101906001600160f81b031916908160001a905350600f60fb1b816001815181106114c457634e487b7160e01b600052603260045260246000fd5b60200101906001600160f81b031916908160001a90535060006114e88460026127d0565b6114f3906001612798565b90505b6001811115611587576f181899199a1a9b1b9c1cb0b131b232b360811b85600f166010811061153557634e487b7160e01b600052603260045260246000fd5b1a60f81b82828151811061155957634e487b7160e01b600052603260045260246000fd5b60200101906001600160f81b031916908160001a90535060049490941c9361158081612832565b90506114f6565b5083156115d65760405162461bcd60e51b815260206004820181905260248201527f537472696e67733a20686578206c656e67746820696e73756666696369656e746044820152606401610cfb565b9392505050565b6115e78282610ff8565b610c69576115ff816001600160a01b031660146113f4565b61160a8360206113f4565b60405160200161161b929190612680565b60408051601f198184030181529082905262461bcd60e51b8252610cfb916004016126f5565b6001600160a01b0383166116a35760405162461bcd60e51b8152602060048201526024808201527f45524332303a20617070726f76652066726f6d20746865207a65726f206164646044820152637265737360e01b6064820152608401610cfb565b6001600160a01b0382166117045760405162461bcd60e51b815260206004820152602260248201527f45524332303a20617070726f766520746f20746865207a65726f206164647265604482015261737360f01b6064820152608401610cfb565b6001600160a01b0383811660008181526001602090815260408083209487168084529482529182902085905590518481527f8c5be1e5ebec7d5bd14f71427d1e84f3dd0314c0f7b2291e5b200ac8c7c3b925910160405180910390a3505050565b6001600160a01b0383166117c95760405162461bcd60e51b815260206004820152602560248201527f43616e6e6f74207472616e736665722066726f6d20746865207a65726f206164604482015264647265737360d81b6064820152608401610cfb565b600081116118195760405162461bcd60e51b815260206004820152601860248201527f43616e6e6f74207472616e73666572203020746f6b656e7300000000000000006044820152606401610cfb565b6001600160a01b0383166000908152600c602052604081205460ff1615801561185b57506001600160a01b0383166000908152600c602052604090205460ff16155b15611975576001600160a01b0383166000908152600d602052604090205460ff16801561188a57506000601554115b156118b1576103e8601554836118a091906127d0565b6118aa91906127b0565b90506118fe565b6001600160a01b0384166000908152600d602052604090205460ff1680156118db57506000601454115b156118fe576103e8601454836118f191906127d0565b6118fb91906127b0565b90505b80156119685761190f843083611f7a565b60006103e86016548361192291906127d0565b61192c91906127b0565b905080600f60008282546119409190612798565b90915550611950905081836127ef565b601060008282546119619190612798565b9091555050505b61197281836127ef565b91505b60135460ff1615611a3757601354610100900460ff161580156119a1575060135462010000900460ff16155b80156119b05750601154600f54115b156119dc576013805461ff0019166101001790556119cc611dc6565b6013805461ff0019169055611a37565b601354610100900460ff161580156119fd575060135462010000900460ff16155b8015611a0c5750601254601054115b15611a37576013805462ff0000191662010000179055611a2a611ec1565b6013805462ff0000191690555b610f1d848484611f7a565b611a4c8282610ff8565b610c695760008281526006602090815260408083206001600160a01b03851684529091529020805460ff19166001179055611a843390565b6001600160a01b0316816001600160a01b0316837f2f8788117e7eff1d82e926ec794901d17c78024a50270940304540a733656f0d60405160405180910390a45050565b611ad28282610ff8565b15610c695760008281526006602090815260408083206001600160a01b0385168085529252808320805460ff1916905551339285917ff6391f5c32d9c69d2a47ea670b442974b53935d1edc7fd64eb21e047a839171b9190a45050565b6001600160a01b038216611b8f5760405162461bcd60e51b815260206004820152602160248201527f45524332303a206275726e2066726f6d20746865207a65726f206164647265736044820152607360f81b6064820152608401610cfb565b611b9b82600083612153565b6001600160a01b03821660009081526020819052604090205481811015611c0f5760405162461bcd60e51b815260206004820152602260248201527f45524332303a206275726e20616d6f756e7420657863656564732062616c616e604482015261636560f01b6064820152608401610cfb565b6001600160a01b0383166000908152602081905260408120838303905560028054849290611c3e9084906127ef565b90915550506040518281526000906001600160a01b038516907fddf252ad1be2c89b69c2b068fc378daa952ba7f163c4a11628f55a4df523b3ef9060200160405180910390a3505050565b600580546001600160a01b038381166001600160a01b0319831681179093556040519116919082907f8be0079c531659141344cd1fd0a4f28419497f9722a3daafe3b4186f6b6457e090600090a35050565b6001600160a01b038216611d315760405162461bcd60e51b815260206004820152601f60248201527f45524332303a206d696e7420746f20746865207a65726f2061646472657373006044820152606401610cfb565b611d3d60008383612153565b8060026000828254611d4f9190612798565b90915550506001600160a01b03821660009081526020819052604081208054839290611d7c908490612798565b90915550506040518181526001600160a01b038316906000907fddf252ad1be2c89b69c2b068fc378daa952ba7f163c4a11628f55a4df523b3ef9060200160405180910390a35050565b601154600f5411611e2e5760405162461bcd60e51b815260206004820152602c60248201527f4e6f7420656e6f75676820544f4b454e20746f6b656e7320746f20737761702060448201526b666f7220736166652066656560a01b6064820152608401610cfb565b600f544790611e3c90612254565b6000600f819055611e4d82476127ef565b600e546040519192506001600160a01b03169082156108fc029083906000818181858888f19350505050158015611e88573d6000803e3d6000fd5b506040518181527f8b0db9f0aaaef250ddae4341c3fd8dd598787eebf6e1f276f358d90a9aae27ea906020015b60405180910390a15050565b60125460105411611f315760405162461bcd60e51b815260206004820152603460248201527f4e6f7420656e6f75676820544f4b454e20746f6b656e7320746f207377617020604482015273666f7220616464696e67206c697175696469747960601b6064820152608401610cfb565b6010544790600090611f45906002906127b0565b9050600081601054611f5791906127ef565b9050611f6282612254565b6000601055610d6181611f7585476127ef565b6123d9565b6001600160a01b038316611fde5760405162461bcd60e51b815260206004820152602560248201527f45524332303a207472616e736665722066726f6d20746865207a65726f206164604482015264647265737360d81b6064820152608401610cfb565b6001600160a01b0382166120405760405162461bcd60e51b815260206004820152602360248201527f45524332303a207472616e7366657220746f20746865207a65726f206164647260448201526265737360e81b6064820152608401610cfb565b61204b838383612153565b6001600160a01b038316600090815260208190526040902054818110156120c35760405162461bcd60e51b815260206004820152602660248201527f45524332303a207472616e7366657220616d6f756e7420657863656564732062604482015265616c616e636560d01b6064820152608401610cfb565b6001600160a01b038085166000908152602081905260408082208585039055918516815290812080548492906120fa908490612798565b92505081905550826001600160a01b0316846001600160a01b03167fddf252ad1be2c89b69c2b068fc378daa952ba7f163c4a11628f55a4df523b3ef8460405161214691815260200190565b60405180910390a3610f1d565b6001600160a01b0383166000908152600b602052604090205460ff16156121d25760405162461bcd60e51b815260206004820152602d60248201527f546f6b656e207472616e7366657220726566757365642e2053656e646572206960448201526c1cc8189b1858dadb1a5cdd1959609a1b6064820152608401610cfb565b6001600160a01b0382166000908152600b602052604090205460ff1615610d615760405162461bcd60e51b815260206004820152603060248201527f546f6b656e207472616e7366657220726566757365642e20526563697069656e60448201526f1d081a5cc8189b1858dadb1a5cdd195960821b6064820152608401610cfb565b604080516002808252606082018352600092602083019080368337019050509050308160008151811061229757634e487b7160e01b600052603260045260246000fd5b6001600160a01b03928316602091820292909201810191909152600754604080516315ab88c960e31b81529051919093169263ad5c4648926004808301939192829003018186803b1580156122eb57600080fd5b505afa1580156122ff573d6000803e3d6000fd5b505050506040513d601f19601f8201168201806040525081019061232391906124e7565b8160018151811061234457634e487b7160e01b600052603260045260246000fd5b6001600160a01b03928316602091820292909201015260075461236a9130911684611641565b60075460405163791ac94760e01b81526001600160a01b039091169063791ac947906123a3908590600090869030904290600401612728565b600060405180830381600087803b1580156123bd57600080fd5b505af11580156123d1573d6000803e3d6000fd5b505050505050565b6007546123f19030906001600160a01b031684611641565b60075460405163f305d71960e01b8152306004820152602481018490526000604482018190526064820181905260848201524260a48201526001600160a01b039091169063f305d71990839060c4016060604051808303818588803b15801561245957600080fd5b505af115801561246d573d6000803e3d6000fd5b50505050506040513d601f19601f820116820180604052508101906124929190612653565b505060408051848152602081018490527fe74b04c1435e286c6b8eba73f0f16a0a2fcc9d21d879598ecacf17db8c497701925001611eb5565b6000602082840312156124dc578081fd5b81356115d68161289a565b6000602082840312156124f8578081fd5b81516115d68161289a565b60008060408385031215612515578081fd5b82356125208161289a565b915060208301356125308161289a565b809150509250929050565b60008060006060848603121561254f578081fd5b833561255a8161289a565b9250602084013561256a8161289a565b929592945050506040919091013590565b6000806040838503121561258d578182fd5b82356125988161289a565b91506020830135612530816128af565b600080604083850312156125ba578182fd5b82356125c58161289a565b946020939093013593505050565b6000602082840312156125e4578081fd5b81516115d6816128af565b600060208284031215612600578081fd5b5035919050565b60008060408385031215612619578182fd5b8235915060208301356125308161289a565b60006020828403121561263c578081fd5b81356001600160e01b0319811681146115d6578182fd5b600080600060608486031215612667578283fd5b8351925060208401519150604084015190509250925092565b7f416363657373436f6e74726f6c3a206163636f756e74200000000000000000008152600083516126b8816017850160208801612806565b7001034b99036b4b9b9b4b733903937b6329607d1b60179184019182015283516126e9816028840160208801612806565b01602801949350505050565b6020815260008251806020840152612714816040850160208701612806565b601f01601f19169190910160400192915050565b600060a082018783526020878185015260a0604085015281875180845260c0860191508289019350845b818110156127775784516001600160a01b031683529383019391830191600101612752565b50506001600160a01b03969096166060850152505050608001529392505050565b600082198211156127ab576127ab612884565b500190565b6000826127cb57634e487b7160e01b81526012600452602481fd5b500490565b60008160001904831182151516156127ea576127ea612884565b500290565b60008282101561280157612801612884565b500390565b60005b83811015612821578181015183820152602001612809565b83811115610f1d5750506000910152565b60008161284157612841612884565b506000190190565b600181811c9082168061285d57607f821691505b6020821081141561287e57634e487b7160e01b600052602260045260246000fd5b50919050565b634e487b7160e01b600052601160045260246000fd5b6001600160a01b03811681146113d257600080fd5b80151581146113d257600080fdfed0a4ad96d49edb1c33461cebc6fb2609190f32c904e3c3f5877edb4488dee91ea264697066735822122043c59f17ac1f4d2114ed6c023f4930a84b513c5654820de3abcb72630a85b2da64736f6c63430008040033",
  "linkReferences": {},
  "deployedLinkReferences": {}
}