{
  "_format": "hh-sol-artifact-1",
  "contractName": "StableStake",
  "sourceName": "contracts/StableStake.sol",
  "abi": [
    {
      "inputs": [
        {
          "internalType": "address payable",
          "name": "_feesWallet",
          "type": "address"
        },
        {
          "internalType": "address payable",
          "name": "_investmentWallet",
          "type": "address"
        },
        {
          "internalType": "address",
          "name": "_supportedTokenAddress",
          "type": "address"
        },
        {
          "internalType": "uint256",
          "name": "_initialInterval",
          "type": "uint256"
        },
        {
          "internalType": "uint256",
          "name": "_initialVestingPeriodOfAffiliateInterests",
          "type": "uint256"
        }
      ],
      "stateMutability": "nonpayable",
      "type": "constructor"
    },
    {
      "anonymous": false,
      "inputs": [
        {
          "indexed": false,
          "internalType": "address",
          "name": "account",
          "type": "address"
        },
        {
          "indexed": false,
          "internalType": "uint256",
          "name": "depositType",
          "type": "uint256"
        },
        {
          "indexed": false,
          "internalType": "uint256",
          "name": "depositSize",
          "type": "uint256"
        },
        {
          "indexed": false,
          "internalType": "uint256",
          "name": "creationTime",
          "type": "uint256"
        }
      ],
      "name": "DepositEntityCreated",
      "type": "event"
    },
    {
      "anonymous": false,
      "inputs": [
        {
          "indexed": false,
          "internalType": "uint256",
          "name": "depositType",
          "type": "uint256"
        }
      ],
      "name": "DepositTypeDeleted",
      "type": "event"
    },
    {
      "anonymous": false,
      "inputs": [
        {
          "indexed": false,
          "internalType": "uint256",
          "name": "depositType",
          "type": "uint256"
        },
        {
          "indexed": false,
          "internalType": "uint256",
          "name": "lockPeriod",
          "type": "uint256"
        },
        {
          "indexed": false,
          "internalType": "uint256",
          "name": "multiplier",
          "type": "uint256"
        },
        {
          "indexed": false,
          "internalType": "uint256",
          "name": "interestInterval",
          "type": "uint256"
        },
        {
          "indexed": false,
          "internalType": "uint256",
          "name": "depositInterestPerPeriod",
          "type": "uint256"
        }
      ],
      "name": "DepositTypeUpdated",
      "type": "event"
    },
    {
      "anonymous": false,
      "inputs": [
        {
          "indexed": true,
          "internalType": "address",
          "name": "previousOwner",
          "type": "address"
        },
        {
          "indexed": true,
          "internalType": "address",
          "name": "newOwner",
          "type": "address"
        }
      ],
      "name": "OwnershipTransferred",
      "type": "event"
    },
    {
      "anonymous": false,
      "inputs": [
        {
          "indexed": true,
          "internalType": "bytes32",
          "name": "role",
          "type": "bytes32"
        },
        {
          "indexed": true,
          "internalType": "bytes32",
          "name": "previousAdminRole",
          "type": "bytes32"
        },
        {
          "indexed": true,
          "internalType": "bytes32",
          "name": "newAdminRole",
          "type": "bytes32"
        }
      ],
      "name": "RoleAdminChanged",
      "type": "event"
    },
    {
      "anonymous": false,
      "inputs": [
        {
          "indexed": true,
          "internalType": "bytes32",
          "name": "role",
          "type": "bytes32"
        },
        {
          "indexed": true,
          "internalType": "address",
          "name": "account",
          "type": "address"
        },
        {
          "indexed": true,
          "internalType": "address",
          "name": "sender",
          "type": "address"
        }
      ],
      "name": "RoleGranted",
      "type": "event"
    },
    {
      "anonymous": false,
      "inputs": [
        {
          "indexed": true,
          "internalType": "bytes32",
          "name": "role",
          "type": "bytes32"
        },
        {
          "indexed": true,
          "internalType": "address",
          "name": "account",
          "type": "address"
        },
        {
          "indexed": true,
          "internalType": "address",
          "name": "sender",
          "type": "address"
        }
      ],
      "name": "RoleRevoked",
      "type": "event"
    },
    {
      "anonymous": false,
      "inputs": [
        {
          "indexed": false,
          "internalType": "uint256",
          "name": "amount",
          "type": "uint256"
        }
      ],
      "name": "SentFeeBalance",
      "type": "event"
    },
    {
      "anonymous": false,
      "inputs": [
        {
          "indexed": false,
          "internalType": "address",
          "name": "account",
          "type": "address"
        },
        {
          "indexed": false,
          "internalType": "uint256",
          "name": "amount",
          "type": "uint256"
        },
        {
          "indexed": false,
          "internalType": "uint256",
          "name": "claimTime",
          "type": "uint256"
        }
      ],
      "name": "SupportedTokenClaimed",
      "type": "event"
    },
    {
      "anonymous": false,
      "inputs": [
        {
          "indexed": false,
          "internalType": "address",
          "name": "account",
          "type": "address"
        },
        {
          "indexed": false,
          "internalType": "uint256",
          "name": "depositIndex",
          "type": "uint256"
        },
        {
          "indexed": false,
          "internalType": "uint256",
          "name": "amount",
          "type": "uint256"
        },
        {
          "indexed": false,
          "internalType": "uint256",
          "name": "compoundTime",
          "type": "uint256"
        }
      ],
      "name": "SupportedTokenCompounded",
      "type": "event"
    },
    {
      "inputs": [],
      "name": "DEFAULT_ADMIN_ROLE",
      "outputs": [
        {
          "internalType": "bytes32",
          "name": "",
          "type": "bytes32"
        }
      ],
      "stateMutability": "view",
      "type": "function"
    },
    {
      "inputs": [],
      "name": "MAXIMUM_DEPOSITS_PER_ACCOUNT",
      "outputs": [
        {
          "internalType": "uint256",
          "name": "",
          "type": "uint256"
        }
      ],
      "stateMutability": "view",
      "type": "function"
    },
    {
      "inputs": [
        {
          "internalType": "address",
          "name": "_account",
          "type": "address"
        },
        {
          "internalType": "uint256",
          "name": "_affiliateInterests",
          "type": "uint256"
        }
      ],
      "name": "airdropAffiliateInterest",
      "outputs": [],
      "stateMutability": "nonpayable",
      "type": "function"
    },
    {
      "inputs": [
        {
          "internalType": "address[]",
          "name": "_accounts",
          "type": "address[]"
        },
        {
          "internalType": "uint256",
          "name": "_affiliateInterests",
          "type": "uint256"
        }
      ],
      "name": "airdropAffiliateInterests",
      "outputs": [],
      "stateMutability": "nonpayable",
      "type": "function"
    },
    {
      "inputs": [
        {
          "internalType": "address",
          "name": "_account",
          "type": "address"
        },
        {
          "internalType": "uint256",
          "name": "_depositType",
          "type": "uint256"
        },
        {
          "internalType": "uint256",
          "name": "_depositSize",
          "type": "uint256"
        }
      ],
      "name": "airdropDeposit",
      "outputs": [],
      "stateMutability": "nonpayable",
      "type": "function"
    },
    {
      "inputs": [
        {
          "internalType": "address[]",
          "name": "_accounts",
          "type": "address[]"
        },
        {
          "internalType": "uint256",
          "name": "_depositType",
          "type": "uint256"
        },
        {
          "internalType": "uint256",
          "name": "_depositSize",
          "type": "uint256"
        }
      ],
      "name": "airdropDeposits",
      "outputs": [],
      "stateMutability": "nonpayable",
      "type": "function"
    },
    {
      "inputs": [
        {
          "internalType": "address",
          "name": "_address",
          "type": "address"
        },
        {
          "internalType": "bool",
          "name": "_bool",
          "type": "bool"
        }
      ],
      "name": "blacklist",
      "outputs": [],
      "stateMutability": "nonpayable",
      "type": "function"
    },
    {
      "inputs": [],
      "name": "cashoutAllDeposits",
      "outputs": [],
      "stateMutability": "nonpayable",
      "type": "function"
    },
    {
      "inputs": [],
      "name": "cashoutAllInterests",
      "outputs": [],
      "stateMutability": "nonpayable",
      "type": "function"
    },
    {
      "inputs": [
        {
          "internalType": "uint256",
          "name": "_depositIndex",
          "type": "uint256"
        }
      ],
      "name": "cashoutAndCompound",
      "outputs": [],
      "stateMutability": "nonpayable",
      "type": "function"
    },
    {
      "inputs": [],
      "name": "cashoutAndCompoundAll",
      "outputs": [],
      "stateMutability": "nonpayable",
      "type": "function"
    },
    {
      "inputs": [
        {
          "internalType": "uint256",
          "name": "_depositIndex",
          "type": "uint256"
        }
      ],
      "name": "cashoutDeposit",
      "outputs": [],
      "stateMutability": "nonpayable",
      "type": "function"
    },
    {
      "inputs": [
        {
          "internalType": "uint256",
          "name": "_depositIndex",
          "type": "uint256"
        }
      ],
      "name": "cashoutInterest",
      "outputs": [],
      "stateMutability": "nonpayable",
      "type": "function"
    },
    {
      "inputs": [],
      "name": "compoundAffiliateInterests",
      "outputs": [],
      "stateMutability": "nonpayable",
      "type": "function"
    },
    {
      "inputs": [
        {
          "internalType": "uint256",
          "name": "_depositSize",
          "type": "uint256"
        },
        {
          "internalType": "uint256",
          "name": "_depositType",
          "type": "uint256"
        },
        {
          "internalType": "address",
          "name": "_sponsor",
          "type": "address"
        }
      ],
      "name": "createDepositWithTokens",
      "outputs": [],
      "stateMutability": "nonpayable",
      "type": "function"
    },
    {
      "inputs": [
        {
          "internalType": "uint256",
          "name": "_lockPeriod",
          "type": "uint256"
        },
        {
          "internalType": "uint256",
          "name": "_minimalDeposit",
          "type": "uint256"
        },
        {
          "internalType": "uint256",
          "name": "_multiplier",
          "type": "uint256"
        },
        {
          "internalType": "uint256",
          "name": "_interestInterval",
          "type": "uint256"
        }
      ],
      "name": "createNewDepositType",
      "outputs": [],
      "stateMutability": "nonpayable",
      "type": "function"
    },
    {
      "inputs": [
        {
          "internalType": "address",
          "name": "_address",
          "type": "address"
        },
        {
          "internalType": "bool",
          "name": "_bool",
          "type": "bool"
        }
      ],
      "name": "exemptAddressFromFees",
      "outputs": [],
      "stateMutability": "nonpayable",
      "type": "function"
    },
    {
      "inputs": [],
      "name": "feesWallet",
      "outputs": [
        {
          "internalType": "address payable",
          "name": "",
          "type": "address"
        }
      ],
      "stateMutability": "view",
      "type": "function"
    },
    {
      "inputs": [
        {
          "internalType": "address",
          "name": "_account",
          "type": "address"
        }
      ],
      "name": "getAccountAffiliateRewardsUnlockTime",
      "outputs": [
        {
          "internalType": "uint256",
          "name": "",
          "type": "uint256"
        }
      ],
      "stateMutability": "view",
      "type": "function"
    },
    {
      "inputs": [
        {
          "internalType": "address",
          "name": "_account",
          "type": "address"
        }
      ],
      "name": "getAccountCreationTimes",
      "outputs": [
        {
          "internalType": "uint256[]",
          "name": "",
          "type": "uint256[]"
        }
      ],
      "stateMutability": "view",
      "type": "function"
    },
    {
      "inputs": [
        {
          "internalType": "address",
          "name": "_account",
          "type": "address"
        }
      ],
      "name": "getAccountDepositSizes",
      "outputs": [
        {
          "internalType": "uint256[]",
          "name": "",
          "type": "uint256[]"
        }
      ],
      "stateMutability": "view",
      "type": "function"
    },
    {
      "inputs": [
        {
          "internalType": "address",
          "name": "_account",
          "type": "address"
        }
      ],
      "name": "getAccountDepositedValue",
      "outputs": [
        {
          "internalType": "uint256",
          "name": "",
          "type": "uint256"
        }
      ],
      "stateMutability": "view",
      "type": "function"
    },
    {
      "inputs": [
        {
          "internalType": "address",
          "name": "_account",
          "type": "address"
        }
      ],
      "name": "getAccountInterestAvailable",
      "outputs": [
        {
          "internalType": "uint256",
          "name": "",
          "type": "uint256"
        }
      ],
      "stateMutability": "view",
      "type": "function"
    },
    {
      "inputs": [
        {
          "internalType": "address",
          "name": "_account",
          "type": "address"
        }
      ],
      "name": "getAccountInterestAvailableAsArray",
      "outputs": [
        {
          "internalType": "uint256[]",
          "name": "",
          "type": "uint256[]"
        }
      ],
      "stateMutability": "view",
      "type": "function"
    },
    {
      "inputs": [
        {
          "internalType": "address",
          "name": "_account",
          "type": "address"
        }
      ],
      "name": "getAccountLastClaimTimes",
      "outputs": [
        {
          "internalType": "uint256[]",
          "name": "",
          "type": "uint256[]"
        }
      ],
      "stateMutability": "view",
      "type": "function"
    },
    {
      "inputs": [
        {
          "internalType": "address",
          "name": "_account",
          "type": "address"
        }
      ],
      "name": "getAccountNextInterestTimes",
      "outputs": [
        {
          "internalType": "uint256[]",
          "name": "",
          "type": "uint256[]"
        }
      ],
      "stateMutability": "view",
      "type": "function"
    },
    {
      "inputs": [
        {
          "internalType": "address",
          "name": "_account",
          "type": "address"
        }
      ],
      "name": "getAccountTypes",
      "outputs": [
        {
          "internalType": "uint256[]",
          "name": "",
          "type": "uint256[]"
        }
      ],
      "stateMutability": "view",
      "type": "function"
    },
    {
      "inputs": [
        {
          "internalType": "address",
          "name": "_account",
          "type": "address"
        }
      ],
      "name": "getAccountUnlockTime",
      "outputs": [
        {
          "internalType": "uint256",
          "name": "",
          "type": "uint256"
        }
      ],
      "stateMutability": "view",
      "type": "function"
    },
    {
      "inputs": [
        {
          "internalType": "address",
          "name": "_account",
          "type": "address"
        }
      ],
      "name": "getAffiliateCount",
      "outputs": [
        {
          "internalType": "uint256",
          "name": "",
          "type": "uint256"
        }
      ],
      "stateMutability": "view",
      "type": "function"
    },
    {
      "inputs": [
        {
          "internalType": "address",
          "name": "_account",
          "type": "address"
        }
      ],
      "name": "getAffiliateInterestsAvailability",
      "outputs": [
        {
          "internalType": "bool",
          "name": "",
          "type": "bool"
        }
      ],
      "stateMutability": "view",
      "type": "function"
    },
    {
      "inputs": [
        {
          "internalType": "address",
          "name": "_account",
          "type": "address"
        }
      ],
      "name": "getAffiliateInterestsAvailable",
      "outputs": [
        {
          "internalType": "uint256",
          "name": "",
          "type": "uint256"
        }
      ],
      "stateMutability": "view",
      "type": "function"
    },
    {
      "inputs": [
        {
          "internalType": "address",
          "name": "_account",
          "type": "address"
        },
        {
          "internalType": "uint256",
          "name": "_depositIndex",
          "type": "uint256"
        }
      ],
      "name": "getDeposit",
      "outputs": [
        {
          "components": [
            {
              "internalType": "uint256",
              "name": "depositType",
              "type": "uint256"
            },
            {
              "internalType": "uint256",
              "name": "depositSize",
              "type": "uint256"
            },
            {
              "internalType": "uint256",
              "name": "creationTime",
              "type": "uint256"
            },
            {
              "internalType": "uint256",
              "name": "lastClaimTime",
              "type": "uint256"
            }
          ],
          "internalType": "struct StableStake.DepositEntity",
          "name": "",
          "type": "tuple"
        }
      ],
      "stateMutability": "view",
      "type": "function"
    },
    {
      "inputs": [
        {
          "internalType": "address",
          "name": "_account",
          "type": "address"
        }
      ],
      "name": "getDepositCount",
      "outputs": [
        {
          "internalType": "uint256",
          "name": "",
          "type": "uint256"
        }
      ],
      "stateMutability": "view",
      "type": "function"
    },
    {
      "inputs": [
        {
          "internalType": "address",
          "name": "_account",
          "type": "address"
        },
        {
          "internalType": "uint256",
          "name": "_depositIndex",
          "type": "uint256"
        }
      ],
      "name": "getDepositCreationTime",
      "outputs": [
        {
          "internalType": "uint256",
          "name": "",
          "type": "uint256"
        }
      ],
      "stateMutability": "view",
      "type": "function"
    },
    {
      "inputs": [
        {
          "internalType": "address",
          "name": "_account",
          "type": "address"
        },
        {
          "internalType": "uint256",
          "name": "_depositIndex",
          "type": "uint256"
        }
      ],
      "name": "getDepositInterestAvailable",
      "outputs": [
        {
          "internalType": "uint256",
          "name": "",
          "type": "uint256"
        }
      ],
      "stateMutability": "view",
      "type": "function"
    },
    {
      "inputs": [
        {
          "internalType": "address",
          "name": "_account",
          "type": "address"
        },
        {
          "internalType": "uint256",
          "name": "_depositIndex",
          "type": "uint256"
        }
      ],
      "name": "getDepositLastClaimTime",
      "outputs": [
        {
          "internalType": "uint256",
          "name": "",
          "type": "uint256"
        }
      ],
      "stateMutability": "view",
      "type": "function"
    },
    {
      "inputs": [
        {
          "internalType": "address",
          "name": "_account",
          "type": "address"
        },
        {
          "internalType": "uint256",
          "name": "_depositIndex",
          "type": "uint256"
        }
      ],
      "name": "getDepositType",
      "outputs": [
        {
          "internalType": "uint256",
          "name": "",
          "type": "uint256"
        }
      ],
      "stateMutability": "view",
      "type": "function"
    },
    {
      "inputs": [
        {
          "internalType": "uint256",
          "name": "_depositType",
          "type": "uint256"
        }
      ],
      "name": "getInterestInterval",
      "outputs": [
        {
          "internalType": "uint256",
          "name": "",
          "type": "uint256"
        }
      ],
      "stateMutability": "view",
      "type": "function"
    },
    {
      "inputs": [],
      "name": "getInterestIntervals",
      "outputs": [
        {
          "internalType": "uint256[]",
          "name": "",
          "type": "uint256[]"
        }
      ],
      "stateMutability": "view",
      "type": "function"
    },
    {
      "inputs": [
        {
          "internalType": "address",
          "name": "_account",
          "type": "address"
        }
      ],
      "name": "getIsAccountAffiliateRewardsUnlocked",
      "outputs": [
        {
          "internalType": "bool",
          "name": "",
          "type": "bool"
        }
      ],
      "stateMutability": "view",
      "type": "function"
    },
    {
      "inputs": [
        {
          "internalType": "address",
          "name": "_account",
          "type": "address"
        }
      ],
      "name": "getIsAccountUnlocked",
      "outputs": [
        {
          "internalType": "bool",
          "name": "",
          "type": "bool"
        }
      ],
      "stateMutability": "view",
      "type": "function"
    },
    {
      "inputs": [
        {
          "internalType": "uint256",
          "name": "_depositType",
          "type": "uint256"
        }
      ],
      "name": "getLockPeriod",
      "outputs": [
        {
          "internalType": "uint256",
          "name": "",
          "type": "uint256"
        }
      ],
      "stateMutability": "view",
      "type": "function"
    },
    {
      "inputs": [],
      "name": "getLockPeriods",
      "outputs": [
        {
          "internalType": "uint256[]",
          "name": "",
          "type": "uint256[]"
        }
      ],
      "stateMutability": "view",
      "type": "function"
    },
    {
      "inputs": [
        {
          "internalType": "uint256",
          "name": "_depositType",
          "type": "uint256"
        }
      ],
      "name": "getMultiplier",
      "outputs": [
        {
          "internalType": "uint256",
          "name": "",
          "type": "uint256"
        }
      ],
      "stateMutability": "view",
      "type": "function"
    },
    {
      "inputs": [],
      "name": "getMultipliers",
      "outputs": [
        {
          "internalType": "uint256[]",
          "name": "",
          "type": "uint256[]"
        }
      ],
      "stateMutability": "view",
      "type": "function"
    },
    {
      "inputs": [
        {
          "internalType": "bytes32",
          "name": "role",
          "type": "bytes32"
        }
      ],
      "name": "getRoleAdmin",
      "outputs": [
        {
          "internalType": "bytes32",
          "name": "",
          "type": "bytes32"
        }
      ],
      "stateMutability": "view",
      "type": "function"
    },
    {
      "inputs": [
        {
          "internalType": "address",
          "name": "_account",
          "type": "address"
        }
      ],
      "name": "getTimeUntilAccountAffiliateRewardsUnlockTime",
      "outputs": [
        {
          "internalType": "uint256",
          "name": "",
          "type": "uint256"
        }
      ],
      "stateMutability": "view",
      "type": "function"
    },
    {
      "inputs": [
        {
          "internalType": "address",
          "name": "_account",
          "type": "address"
        }
      ],
      "name": "getTimeUntilAccountUnlockTime",
      "outputs": [
        {
          "internalType": "uint256",
          "name": "",
          "type": "uint256"
        }
      ],
      "stateMutability": "view",
      "type": "function"
    },
    {
      "inputs": [],
      "name": "getTotalDepositedAmount",
      "outputs": [
        {
          "internalType": "uint256",
          "name": "",
          "type": "uint256"
        }
      ],
      "stateMutability": "view",
      "type": "function"
    },
    {
      "inputs": [],
      "name": "getTotalDepositsCreated",
      "outputs": [
        {
          "internalType": "uint256",
          "name": "",
          "type": "uint256"
        }
      ],
      "stateMutability": "view",
      "type": "function"
    },
    {
      "inputs": [],
      "name": "getTotalEarnedAmount",
      "outputs": [
        {
          "internalType": "uint256",
          "name": "",
          "type": "uint256"
        }
      ],
      "stateMutability": "view",
      "type": "function"
    },
    {
      "inputs": [
        {
          "internalType": "bytes32",
          "name": "role",
          "type": "bytes32"
        },
        {
          "internalType": "address",
          "name": "account",
          "type": "address"
        }
      ],
      "name": "grantRole",
      "outputs": [],
      "stateMutability": "nonpayable",
      "type": "function"
    },
    {
      "inputs": [
        {
          "internalType": "bytes32",
          "name": "role",
          "type": "bytes32"
        },
        {
          "internalType": "address",
          "name": "account",
          "type": "address"
        }
      ],
      "name": "hasRole",
      "outputs": [
        {
          "internalType": "bool",
          "name": "",
          "type": "bool"
        }
      ],
      "stateMutability": "view",
      "type": "function"
    },
    {
      "inputs": [],
      "name": "investmentWallet",
      "outputs": [
        {
          "internalType": "address payable",
          "name": "",
          "type": "address"
        }
      ],
      "stateMutability": "view",
      "type": "function"
    },
    {
      "inputs": [
        {
          "internalType": "address",
          "name": "_address",
          "type": "address"
        }
      ],
      "name": "isBlacklisted",
      "outputs": [
        {
          "internalType": "bool",
          "name": "",
          "type": "bool"
        }
      ],
      "stateMutability": "view",
      "type": "function"
    },
    {
      "inputs": [],
      "name": "isCashoutPaused",
      "outputs": [
        {
          "internalType": "bool",
          "name": "",
          "type": "bool"
        }
      ],
      "stateMutability": "view",
      "type": "function"
    },
    {
      "inputs": [],
      "name": "isDepositCreationPaused",
      "outputs": [
        {
          "internalType": "bool",
          "name": "",
          "type": "bool"
        }
      ],
      "stateMutability": "view",
      "type": "function"
    },
    {
      "inputs": [],
      "name": "owner",
      "outputs": [
        {
          "internalType": "address",
          "name": "",
          "type": "address"
        }
      ],
      "stateMutability": "view",
      "type": "function"
    },
    {
      "inputs": [
        {
          "internalType": "bool",
          "name": "_bool",
          "type": "bool"
        }
      ],
      "name": "pauseCashout",
      "outputs": [],
      "stateMutability": "nonpayable",
      "type": "function"
    },
    {
      "inputs": [
        {
          "internalType": "bool",
          "name": "_bool",
          "type": "bool"
        }
      ],
      "name": "pauseDepositCreation",
      "outputs": [],
      "stateMutability": "nonpayable",
      "type": "function"
    },
    {
      "inputs": [],
      "name": "removeDepositType",
      "outputs": [],
      "stateMutability": "nonpayable",
      "type": "function"
    },
    {
      "inputs": [],
      "name": "renounceOwnership",
      "outputs": [],
      "stateMutability": "nonpayable",
      "type": "function"
    },
    {
      "inputs": [
        {
          "internalType": "bytes32",
          "name": "role",
          "type": "bytes32"
        },
        {
          "internalType": "address",
          "name": "account",
          "type": "address"
        }
      ],
      "name": "renounceRole",
      "outputs": [],
      "stateMutability": "nonpayable",
      "type": "function"
    },
    {
      "inputs": [
        {
          "internalType": "bytes32",
          "name": "role",
          "type": "bytes32"
        },
        {
          "internalType": "address",
          "name": "account",
          "type": "address"
        }
      ],
      "name": "revokeRole",
      "outputs": [],
      "stateMutability": "nonpayable",
      "type": "function"
    },
    {
      "inputs": [],
      "name": "sendFeeBalance",
      "outputs": [],
      "stateMutability": "nonpayable",
      "type": "function"
    },
    {
      "inputs": [
        {
          "internalType": "uint256",
          "name": "_cashoutFee",
          "type": "uint256"
        }
      ],
      "name": "setCashoutFee",
      "outputs": [],
      "stateMutability": "nonpayable",
      "type": "function"
    },
    {
      "inputs": [
        {
          "internalType": "uint256",
          "name": "_createDepositFee",
          "type": "uint256"
        }
      ],
      "name": "setCreateDepositFee",
      "outputs": [],
      "stateMutability": "nonpayable",
      "type": "function"
    },
    {
      "inputs": [
        {
          "internalType": "address payable",
          "name": "_feesWallet",
          "type": "address"
        }
      ],
      "name": "setFeesWallet",
      "outputs": [],
      "stateMutability": "nonpayable",
      "type": "function"
    },
    {
      "inputs": [
        {
          "internalType": "address payable",
          "name": "_investmentWallet",
          "type": "address"
        }
      ],
      "name": "setInvestmentWallet",
      "outputs": [],
      "stateMutability": "nonpayable",
      "type": "function"
    },
    {
      "inputs": [
        {
          "internalType": "uint256",
          "name": "_maximumDepositAmount",
          "type": "uint256"
        }
      ],
      "name": "setMaximumDepositAmount",
      "outputs": [],
      "stateMutability": "nonpayable",
      "type": "function"
    },
    {
      "inputs": [
        {
          "internalType": "uint256",
          "name": "_maximumFirstDepositAmount",
          "type": "uint256"
        }
      ],
      "name": "setMaximumFirstDepositAmount",
      "outputs": [],
      "stateMutability": "nonpayable",
      "type": "function"
    },
    {
      "inputs": [
        {
          "internalType": "uint256",
          "name": "_minimumFeeBalanceToSend",
          "type": "uint256"
        }
      ],
      "name": "setMinimumFeeBalanceToSend",
      "outputs": [],
      "stateMutability": "nonpayable",
      "type": "function"
    },
    {
      "inputs": [
        {
          "internalType": "uint256",
          "name": "_sponsorFee",
          "type": "uint256"
        }
      ],
      "name": "setSponsorFee",
      "outputs": [],
      "stateMutability": "nonpayable",
      "type": "function"
    },
    {
      "inputs": [
        {
          "internalType": "address",
          "name": "_supportedTokenAddress",
          "type": "address"
        }
      ],
      "name": "setSupportedToken",
      "outputs": [],
      "stateMutability": "nonpayable",
      "type": "function"
    },
    {
      "inputs": [
        {
          "internalType": "uint256",
          "name": "_vestingPeriodOfAffiliateInterests",
          "type": "uint256"
        }
      ],
      "name": "setVestingPeriodOfAffiliateInterests",
      "outputs": [],
      "stateMutability": "nonpayable",
      "type": "function"
    },
    {
      "inputs": [],
      "name": "supportedToken",
      "outputs": [
        {
          "internalType": "contract IERC20",
          "name": "",
          "type": "address"
        }
      ],
      "stateMutability": "view",
      "type": "function"
    },
    {
      "inputs": [
        {
          "internalType": "bytes4",
          "name": "interfaceId",
          "type": "bytes4"
        }
      ],
      "name": "supportsInterface",
      "outputs": [
        {
          "internalType": "bool",
          "name": "",
          "type": "bool"
        }
      ],
      "stateMutability": "view",
      "type": "function"
    },
    {
      "inputs": [],
      "name": "totalDepositTypes",
      "outputs": [
        {
          "internalType": "uint256",
          "name": "",
          "type": "uint256"
        }
      ],
      "stateMutability": "view",
      "type": "function"
    },
    {
      "inputs": [],
      "name": "totalDepositedAmount",
      "outputs": [
        {
          "internalType": "uint256",
          "name": "",
          "type": "uint256"
        }
      ],
      "stateMutability": "view",
      "type": "function"
    },
    {
      "inputs": [],
      "name": "totalDepositsCreated",
      "outputs": [
        {
          "internalType": "uint256",
          "name": "",
          "type": "uint256"
        }
      ],
      "stateMutability": "view",
      "type": "function"
    },
    {
      "inputs": [],
      "name": "totalEarnedAmount",
      "outputs": [
        {
          "internalType": "uint256",
          "name": "",
          "type": "uint256"
        }
      ],
      "stateMutability": "view",
      "type": "function"
    },
    {
      "inputs": [
        {
          "internalType": "address",
          "name": "newOwner",
          "type": "address"
        }
      ],
      "name": "transferOwnership",
      "outputs": [],
      "stateMutability": "nonpayable",
      "type": "function"
    },
    {
      "inputs": [
        {
          "internalType": "address",
          "name": "_account",
          "type": "address"
        },
        {
          "internalType": "uint256",
          "name": "_depositIndex",
          "type": "uint256"
        },
        {
          "internalType": "uint256",
          "name": "_lastClaimTime",
          "type": "uint256"
        }
      ],
      "name": "updateDepositLastClaimTime",
      "outputs": [],
      "stateMutability": "nonpayable",
      "type": "function"
    },
    {
      "inputs": [
        {
          "internalType": "address",
          "name": "_account",
          "type": "address"
        },
        {
          "internalType": "uint256",
          "name": "_depositIndex",
          "type": "uint256"
        },
        {
          "internalType": "uint256",
          "name": "_depositSize",
          "type": "uint256"
        }
      ],
      "name": "updateDepositSize",
      "outputs": [],
      "stateMutability": "nonpayable",
      "type": "function"
    },
    {
      "inputs": [
        {
          "internalType": "uint256",
          "name": "_depositType",
          "type": "uint256"
        },
        {
          "internalType": "uint256",
          "name": "_lockPeriod",
          "type": "uint256"
        },
        {
          "internalType": "uint256",
          "name": "_minimalDeposit",
          "type": "uint256"
        },
        {
          "internalType": "uint256",
          "name": "_multiplier",
          "type": "uint256"
        },
        {
          "internalType": "uint256",
          "name": "_interestInterval",
          "type": "uint256"
        }
      ],
      "name": "updateDepositType",
      "outputs": [],
      "stateMutability": "nonpayable",
      "type": "function"
    },
    {
      "inputs": [
        {
          "internalType": "uint256",
          "name": "_amount",
          "type": "uint256"
        }
      ],
      "name": "withdraw",
      "outputs": [],
      "stateMutability": "nonpayable",
      "type": "function"
    },
    {
      "inputs": [
        {
          "internalType": "address",
          "name": "_erc20",
          "type": "address"
        },
        {
          "internalType": "uint256",
          "name": "_amount",
          "type": "uint256"
        }
      ],
      "name": "withdrawERC20",
      "outputs": [],
      "stateMutability": "nonpayable",
      "type": "function"
    },
    {
      "stateMutability": "payable",
      "type": "receive"
    }
  ],
  "bytecode": "0x60806040526000600a819055600b819055600c819055600d819055600e805461ffff19169055600f81905560105568056bc75e2d6310000060115560fa601255603260135569021e19e0c9bab240000060155569152d02c7e14af68000006016553480156200006d57600080fd5b506040516200628838038062006288833981016040819052620000909162000236565b6200009b336200011f565b60016002819055600980546001600160a01b038089166001600160a01b031992831617909255600880548884169083161790556007805492871692909116919091179055336000908152600560205260409020805460ff1916909117905562000111826802b5e3af16b18800006078826200016f565b60145550620002db92505050565b600080546001600160a01b038381166001600160a01b0319831681178455604051919092169283917f8be0079c531659141344cd1fd0a4f28419497f9722a3daafe3b4186f6b6457e09190a35050565b6040805160a08082018352600a805480845260208085018a81528587018a815260608088018b81526080808a018c815260009788526004808852978c90209a518b55945160018b0155925160028a015551600389015591519690930195909555915485519081529182018990529381018790529182018590529181018390527f7d7db8cea25b20999de9a8af921d61cbb2a474a1e5ab9265ab56ea0cc821cabf910160405180910390a1600a80549060006200022b836200029a565b919050555050505050565b600080600080600060a086880312156200024e578081fd5b85516200025b81620002c2565b60208701519095506200026e81620002c2565b60408701519094506200028181620002c2565b6060870151608090970151959894975095949392505050565b6000600019821415620002bb57634e487b7160e01b81526011600452602481fd5b5060010190565b6001600160a01b0381168114620002d857600080fd5b50565b615f9d80620002eb6000396000f3fe6080604052600436106104c45760003560e01c80638b02a64f11610276578063c6f21b2d1161014f578063dbf33625116100c1578063f1d023a811610085578063f1d023a814610f1b578063f2fde38b14610f31578063f55ad3ec14610f51578063f7e8561d14610f81578063fba87be314610fa1578063fe575a8714610fc157600080fd5b8063dbf3362514610e6d578063e357f35714610ea6578063e538fed514610ec6578063eb1d7c0914610edb578063ed9da89f14610efb57600080fd5b8063d3b0fc3911610113578063d3b0fc3914610dc3578063d3b4c9eb14610de3578063d547741f14610df8578063d6845dc714610e18578063d70a6f3114610e38578063db7ac39914610e5857600080fd5b8063c6f21b2d14610d38578063c92015f614610d58578063ca97d93314610d78578063d04d62a314610d98578063d31d9a7e14610dad57600080fd5b8063a217fddf116101e8578063b6fa37bc116101ac578063b6fa37bc14610c78578063bbdc61e614610c98578063bc2f2dcf14610cb8578063c146134114610cd8578063c43b247214610cf8578063c61e0d3014610d1857600080fd5b8063a217fddf14610bdf578063a3f68b5714610bf4578063a71aaf5914610c09578063adc144d414610c29578063adf8252d14610c4857600080fd5b806391d148541161023a57806391d1485414610b35578063952b612a14610b55578063984d9bf114610b6a57806398e4a4e814610b7f5780639b94ea0214610b9f578063a1db978214610bbf57600080fd5b80638b02a64f14610aac5780638b9c777d14610acc5780638d6dfdd414610ae25780638da5cb5b14610b025780638f347d9c14610b2057600080fd5b80633da46556116103a85780636c21bf291161031a5780637e44d2cc116102de5780637e44d2cc146109f7578063809acac114610a175780638250d96c14610a37578063847cfd4214610a5757806389c7564014610a775780638a27efe214610a9757600080fd5b80636c21bf291461095c578063715018a61461097c57806374d8e8bc1461099157806378d9d379146109b157806379873f8a146109e257600080fd5b806346c9fbe91161036c57806346c9fbe91461089c5780634bfa93c2146108bc5780634e7b77f1146108dc578063599193b3146108fc578063629a9fea1461091c5780636803c6161461093c57600080fd5b80633da4655614610812578063404e51291461083257806341ee13be1461085257806343d4f92b1461086757806345eff9171461088757600080fd5b8063248a9ca3116104415780632c887679116104055780632c887679146107585780632e1a7d4d146107725780632f2ff15d1461079257806330d57a6b146107b257806336568abe146107d25780633d001d06146107f257600080fd5b8063248a9ca31461067257806325237d9a146106a35780632726b506146106c3578063293500b9146107165780632a6be9bb1461072b57600080fd5b80630ee0599c116104885780630ee0599c1461059557806313fcaf54146105cd57806317295894146106035780631bf9542a14610619578063206703421461065257600080fd5b806301ffc9a7146104d057806303ea22e914610505578063061ad2101461052757806306d0034414610547578063097c75eb1461056757600080fd5b366104cb57005b600080fd5b3480156104dc57600080fd5b506104f06104eb366004615b03565b610ffa565b60405190151581526020015b60405180910390f35b34801561051157600080fd5b50610525610520366004615ac7565b611031565b005b34801561053357600080fd5b50610525610542366004615ac7565b611069565b34801561055357600080fd5b50610525610562366004615a8f565b611210565b34801561057357600080fd5b5061058761058236600461594f565b61124d565b6040519081526020016104fc565b3480156105a157600080fd5b506007546105b5906001600160a01b031681565b6040516001600160a01b0390911681526020016104fc565b3480156105d957600080fd5b506105876105e836600461594f565b6001600160a01b031660009081526003602052604090205490565b34801561060f57600080fd5b50610587600c5481565b34801561062557600080fd5b5061058761063436600461594f565b6001600160a01b031660009081526003602052604090206001015490565b34801561065e57600080fd5b5061052561066d366004615b43565b6113c8565b34801561067e57600080fd5b5061058761068d366004615ac7565b6000908152600160208190526040909120015490565b3480156106af57600080fd5b506105876106be36600461594f565b6117a0565b3480156106cf57600080fd5b506106e36106de3660046159a3565b61185b565b6040516104fc91908151815260208083015190820152604080830151908201526060918201519181019190915260800190565b34801561072257600080fd5b50610525611907565b34801561073757600080fd5b5061074b61074636600461594f565b611bcc565b6040516104fc9190615c77565b34801561076457600080fd5b50600e546104f09060ff1681565b34801561077e57600080fd5b5061052561078d366004615ac7565b611d38565b34801561079e57600080fd5b506105256107ad366004615adf565b611d93565b3480156107be57600080fd5b506105256107cd366004615ac7565b611dbf565b3480156107de57600080fd5b506105256107ed366004615adf565b611dee565b3480156107fe57600080fd5b506104f061080d36600461594f565b611e68565b34801561081e57600080fd5b5061074b61082d36600461594f565b611ec8565b34801561083e57600080fd5b5061052561084d36600461596b565b61202b565b34801561085e57600080fd5b5061074b612080565b34801561087357600080fd5b5061052561088236600461594f565b61213a565b34801561089357600080fd5b50600b54610587565b3480156108a857600080fd5b506105256108b7366004615ac7565b612186565b3480156108c857600080fd5b506105256108d7366004615ac7565b6124eb565b3480156108e857600080fd5b5061074b6108f736600461594f565b61251a565b34801561090857600080fd5b5061074b61091736600461594f565b61267d565b34801561092857600080fd5b5061052561093736600461596b565b6127e4565b34801561094857600080fd5b506105876109573660046159a3565b612839565b34801561096857600080fd5b5061058761097736600461594f565b61288b565b34801561098857600080fd5b50610525612961565b34801561099d57600080fd5b506105256109ac3660046159ce565b612997565b3480156109bd57600080fd5b506105876109cc366004615ac7565b6000908152600460208190526040909120015490565b3480156109ee57600080fd5b5061074b612ac5565b348015610a0357600080fd5b506009546105b5906001600160a01b031681565b348015610a2357600080fd5b50610525610a32366004615bac565b612b79565b348015610a4357600080fd5b50610525610a52366004615a44565b612cc6565b348015610a6357600080fd5b5061074b610a7236600461594f565b612d46565b348015610a8357600080fd5b50610587610a9236600461594f565b612ea9565b348015610aa357600080fd5b5061052561301f565b348015610ab857600080fd5b50610525610ac7366004615ac7565b6133fc565b348015610ad857600080fd5b50610587600a5481565b348015610aee57600080fd5b50610525610afd366004615ac7565b61342b565b348015610b0e57600080fd5b506000546001600160a01b03166105b5565b348015610b2c57600080fd5b5061052561345a565b348015610b4157600080fd5b506104f0610b50366004615adf565b613732565b348015610b6157600080fd5b5061052561375d565b348015610b7657600080fd5b50610587606481565b348015610b8b57600080fd5b50610525610b9a366004615a02565b613965565b348015610bab57600080fd5b50610525610bba3660046159ce565b613a12565b348015610bcb57600080fd5b50610525610bda3660046159a3565b613a91565b348015610beb57600080fd5b50610587600081565b348015610c0057600080fd5b50600d54610587565b348015610c1557600080fd5b50610525610c243660046159a3565b613b3b565b348015610c3557600080fd5b50600e546104f090610100900460ff1681565b348015610c5457600080fd5b50610587610c63366004615ac7565b60009081526004602052604090206003015490565b348015610c8457600080fd5b506008546105b5906001600160a01b031681565b348015610ca457600080fd5b50610525610cb3366004615ac7565b613b99565b348015610cc457600080fd5b50610525610cd336600461594f565b613dce565b348015610ce457600080fd5b50610587610cf336600461594f565b613e1a565b348015610d0457600080fd5b50610525610d1336600461594f565b613f05565b348015610d2457600080fd5b50610587610d333660046159a3565b613f51565b348015610d4457600080fd5b5061074b610d5336600461594f565b613f95565b348015610d6457600080fd5b50610587610d7336600461594f565b6141a3565b348015610d8457600080fd5b50610525610d933660046159ce565b6142ca565b348015610da457600080fd5b506105256142ff565b348015610db957600080fd5b50610587600d5481565b348015610dcf57600080fd5b50610587610dde3660046159a3565b614331565b348015610def57600080fd5b5061074b614383565b348015610e0457600080fd5b50610525610e13366004615adf565b614438565b348015610e2457600080fd5b506104f0610e3336600461594f565b61445f565b348015610e4457600080fd5b50610525610e53366004615ac7565b6144df565b348015610e6457600080fd5b50600c54610587565b348015610e7957600080fd5b50610587610e8836600461594f565b6001600160a01b031660009081526003602052604090206002015490565b348015610eb257600080fd5b50610525610ec1366004615a8f565b61450e565b348015610ed257600080fd5b50610525614552565b348015610ee757600080fd5b50610525610ef6366004615b7b565b61463d565b348015610f0757600080fd5b50610525610f16366004615ac7565b614673565b348015610f2757600080fd5b50610587600b5481565b348015610f3d57600080fd5b50610525610f4c36600461594f565b6146a2565b348015610f5d57600080fd5b50610587610f6c366004615ac7565b60009081526004602052604090206001015490565b348015610f8d57600080fd5b506104f0610f9c36600461594f565b61473d565b348015610fad57600080fd5b50610587610fbc3660046159a3565b6147d1565b348015610fcd57600080fd5b506104f0610fdc36600461594f565b6001600160a01b031660009081526006602052604090205460ff1690565b60006001600160e01b03198216637965db0b60e01b148061102b57506301ffc9a760e01b6001600160e01b03198316145b92915050565b6000546001600160a01b031633146110645760405162461bcd60e51b815260040161105b90615d47565b60405180910390fd5b601555565b60028054141561108b5760405162461bcd60e51b815260040161105b90615df7565b600280553360009081526006602052604090205460ff16156110bf5760405162461bcd60e51b815260040161105b90615d1a565b3360009081526003602052604081208054839081106110ee57634e487b7160e01b600052603260045260246000fd5b60009182526020808320338452600390915260408320805460049093029091019350611178918590811061113257634e487b7160e01b600052603260045260246000fd5b9060005260206000209060040201604051806080016040529081600082015481526020016001820154815260200160028201548152602001600382015481525050614823565b9050600081116111c05760405162461bcd60e51b8152602060048201526013602482015272139bdd1a1a5b99c81d1bc818dbdb5c1bdd5b99606a1b604482015260640161105b565b604080516080810182528354815260018401546020820152600284015491810191909152600383015460608201526111f790614855565b6003830155611206838261488f565b5050600160025550565b6000546001600160a01b0316331461123a5760405162461bcd60e51b815260040161105b90615d47565b600e805460ff1916911515919091179055565b6001600160a01b0381166000908152600360205260408120541580159061131e57506001600160a01b0382166000908152600360205260408120805442926112c992916112aa57634e487b7160e01b600052603260045260246000fd5b6000918252602080832060049283020154835252604090206001015490565b6001600160a01b0384166000908152600360205260408120805490919061130057634e487b7160e01b600052603260045260246000fd5b90600052602060002090600402016002015461131c9190615e2e565b115b156113bb576001600160a01b03821660009081526003602052604081208054429261135e92916112aa57634e487b7160e01b600052603260045260246000fd5b6001600160a01b0384166000908152600360205260408120805490919061139557634e487b7160e01b600052603260045260246000fd5b9060005260206000209060040201600201546113b19190615e2e565b61102b9190615e79565b506000919050565b919050565b6002805414156113ea5760405162461bcd60e51b815260040161105b90615df7565b60028055600e5460ff16156114415760405162461bcd60e51b815260206004820152601a60248201527f4465706f736974206372656174696f6e20697320706175736564000000000000604482015260640161105b565b3360009081526006602052604090205460ff16156114715760405162461bcd60e51b815260040161105b90615d1a565b6001600160a01b0381163314156114ca5760405162461bcd60e51b815260206004820152601a60248201527f43616e6e6f7420626520796f7572206f776e2073706f6e736f72000000000000604482015260640161105b565b60008281526004602052604090206002015483101561152b5760405162461bcd60e51b815260206004820152601760248201527f4465706f7369742073697a6520697320746f6f206c6f77000000000000000000604482015260640161105b565b336000908152600360205260409020546115af5760155483106115aa5760405162461bcd60e51b815260206004820152603160248201527f4465706f7369742073697a652065786365656473206d6178696d756d206669726044820152701cdd0819195c1bdcda5d08185b5bdd5b9d607a1b606482015260840161105b565b611614565b60165483106116145760405162461bcd60e51b815260206004820152602b60248201527f4465706f7369742073697a652065786365656473206d6178696d756d2064657060448201526a1bdcda5d08185b5bdd5b9d60aa1b606482015260840161105b565b61161d8361498b565b33600090815260036020819052604090912001546001600160a01b031615801561164f57506001600160a01b03811615155b801561167457506001600160a01b03811660009081526006602052604090205460ff16155b801561168d575033600090815260036020526040902054155b15611795576001600160a01b0381811660009081526003602081905260409091200154163314156117005760405162461bcd60e51b815260206004820181905260248201527f43616e6e6f7420626520796f75722073706f6e736f7227732073706f6e736f72604482015260640161105b565b33600090815260036020819052604080832090910180546001600160a01b0319166001600160a01b0385169081179091558252812060020180549161174483615ed3565b91905055506103e86012548461175a9190615e5a565b6117649190615e46565b6001600160a01b0382166000908152600360205260408120600101805490919061178f908490615e2e565b90915550505b611206338385614b19565b6001600160a01b0381166000908152600360205260408120541580159061181b57506014546001600160a01b03831660009081526003602052604081208054429392906117fd57634e487b7160e01b600052603260045260246000fd5b9060005260206000209060040201600201546118199190615e2e565b115b156113bb576014546001600160a01b038316600090815260036020526040812080544293929061139557634e487b7160e01b600052603260045260246000fd5b6118866040518060800160405280600081526020016000815260200160008152602001600081525090565b6001600160a01b03831660009081526003602052604090208054839081106118be57634e487b7160e01b600052603260045260246000fd5b9060005260206000209060040201604051806080016040529081600082015481526020016001820154815260200160028201548152602001600382015481525050905092915050565b6002805414156119295760405162461bcd60e51b815260040161105b90615df7565b600280553360009081526006602052604090205460ff161561195d5760405162461bcd60e51b815260040161105b90615d1a565b33600090815260036020526040902080546119b35760405162461bcd60e51b8152602060048201526016602482015275139bc819195c1bdcda5d081d1bc818dbdb5c1bdd5b9960521b604482015260640161105b565b6000805b8254811015611b7157600460008483815481106119e457634e487b7160e01b600052603260045260246000fd5b906000526020600020906004020160000154815260200190815260200160002060040154838281548110611a2857634e487b7160e01b600052603260045260246000fd5b90600052602060002090600402016003015442611a459190615e79565b1115611b5f57611ab4838281548110611a6e57634e487b7160e01b600052603260045260246000fd5b9060005260206000209060040201604051806080016040529081600082015481526020016001820154815260200160028201548152602001600382015481525050614d5e565b611abe9083615e2e565b9150611b29838281548110611ae357634e487b7160e01b600052603260045260246000fd5b9060005260206000209060040201604051806080016040529081600082015481526020016001820154815260200160028201548152602001600382015481525050614e63565b838281548110611b4957634e487b7160e01b600052603260045260246000fd5b9060005260206000209060040201600301819055505b80611b6981615ed3565b9150506119b7565b5060008111611bb85760405162461bcd60e51b8152602060048201526013602482015272139bdd1a1a5b99c81d1bc818dbdb5c1bdd5b99606a1b604482015260640161105b565b611bc360008261488f565b50506001600255565b6001600160a01b0381166000908152600360209081526040808320805482518185028101850190935280835260609493849084015b82821015611c5b578382906000526020600020906004020160405180608001604052908160008201548152602001600182015481526020016002820154815260200160038201548152505081526020019060010190611c01565b5050505090506000815190506000816001600160401b03811115611c8f57634e487b7160e01b600052604160045260246000fd5b604051908082528060200260200182016040528015611cb8578160200160208202803683370190505b50905060005b82811015611d2f57838181518110611ce657634e487b7160e01b600052603260045260246000fd5b602002602001015160000151828281518110611d1257634e487b7160e01b600052603260045260246000fd5b602090810291909101015280611d2781615ed3565b915050611cbe565b50949350505050565b6000546001600160a01b03163314611d625760405162461bcd60e51b815260040161105b90615d47565b604051339082156108fc029083906000818181858888f19350505050158015611d8f573d6000803e3d6000fd5b5050565b60008281526001602081905260409091200154611db08133614edd565b611dba8383614f41565b505050565b6000546001600160a01b03163314611de95760405162461bcd60e51b815260040161105b90615d47565b600f55565b6001600160a01b0381163314611e5e5760405162461bcd60e51b815260206004820152602f60248201527f416363657373436f6e74726f6c3a2063616e206f6e6c792072656e6f756e636560448201526e103937b632b9903337b91039b2b63360891b606482015260840161105b565b611d8f8282614fac565b6014546001600160a01b038216600090815260036020526040812080549192918390611ea457634e487b7160e01b600052603260045260246000fd5b90600052602060002090600402016002015442611ec19190615e79565b1192915050565b6001600160a01b0381166000908152600360209081526040808320805482518185028101850190935280835260609493849084015b82821015611f57578382906000526020600020906004020160405180608001604052908160008201548152602001600182015481526020016002820154815260200160038201548152505081526020019060010190611efd565b5050505090506000815190506000816001600160401b03811115611f8b57634e487b7160e01b600052604160045260246000fd5b604051908082528060200260200182016040528015611fb4578160200160208202803683370190505b50905060005b82811015611d2f57838181518110611fe257634e487b7160e01b600052603260045260246000fd5b60200260200101516020015182828151811061200e57634e487b7160e01b600052603260045260246000fd5b60209081029190910101528061202381615ed3565b915050611fba565b6000546001600160a01b031633146120555760405162461bcd60e51b815260040161105b90615d47565b6001600160a01b03919091166000908152600660205260409020805460ff1916911515919091179055565b60606000600a546001600160401b038111156120ac57634e487b7160e01b600052604160045260246000fd5b6040519080825280602002602001820160405280156120d5578160200160208202803683370190505b50905060005b600a548110156121345760008181526004602052604090206001015482828151811061211757634e487b7160e01b600052603260045260246000fd5b60209081029190910101528061212c81615ed3565b9150506120db565b50919050565b6000546001600160a01b031633146121645760405162461bcd60e51b815260040161105b90615d47565b600980546001600160a01b0319166001600160a01b0392909216919091179055565b6002805414156121a85760405162461bcd60e51b815260040161105b90615df7565b60028055600e54610100900460ff16156121d45760405162461bcd60e51b815260040161105b90615dca565b3360009081526006602052604090205460ff16156122045760405162461bcd60e51b815260040161105b90615d1a565b33600090815260036020526040812080548390811061223357634e487b7160e01b600052603260045260246000fd5b600091825260208083206040805160808101825260049094029091018054845260018101548484015260028101548483015260039081015460608501523385529091529091205490915082106122e35760405162461bcd60e51b815260206004820152602f60248201527f547279696e6720746f20636173686f75742061206465706f736974207468617460448201526e08191bd95cc81b9bdd08195e1a5cdd608a1b606482015260840161105b565b80516000908152600460209081526040808320600101543384526003909252822080549192909161232457634e487b7160e01b600052603260045260246000fd5b9060005260206000209060040201600201546123409190615e2e565b42116123ab5760405162461bcd60e51b815260206004820152603460248201527f43616e6e6f7420636173686f7574206465706f736974206265666f72652074686044820152731948195b99081bd9881b1bd8dac81c195c9a5bd960621b606482015260840161105b565b6020810151806123cd5760405162461bcd60e51b815260040161105b90615cee565b3360009081526003602052604090208054429190859081106123ff57634e487b7160e01b600052603260045260246000fd5b6000918252602080832060036004909302018201939093553382529091526040812080548590811061244157634e487b7160e01b600052603260045260246000fd5b60009182526020808320600160049093020191909101929092553381526005909152604090205460ff161561247e5761247981615013565b611206565b60006103e8601354836124919190615e5a565b61249b9190615e46565b905060006124a98284615e79565b905081601060008282546124bd9190615e2e565b909155505060115460105411156124d6576124d6615169565b6124df81615013565b50505050600160025550565b6000546001600160a01b031633146125155760405162461bcd60e51b815260040161105b90615d47565b601255565b6001600160a01b0381166000908152600360209081526040808320805482518185028101850190935280835260609493849084015b828210156125a957838290600052602060002090600402016040518060800160405290816000820154815260200160018201548152602001600282015481526020016003820154815250508152602001906001019061254f565b5050505090506000815190506000816001600160401b038111156125dd57634e487b7160e01b600052604160045260246000fd5b604051908082528060200260200182016040528015612606578160200160208202803683370190505b50905060005b82811015611d2f5783818151811061263457634e487b7160e01b600052603260045260246000fd5b60200260200101516060015182828151811061266057634e487b7160e01b600052603260045260246000fd5b60209081029190910101528061267581615ed3565b91505061260c565b6001600160a01b0381166000908152600360209081526040808320805482518185028101850190935280835260609493849084015b8282101561270c5783829060005260206000209060040201604051806080016040529081600082015481526020016001820154815260200160028201548152602001600382015481525050815260200190600101906126b2565b5050505090506000815190506000816001600160401b0381111561274057634e487b7160e01b600052604160045260246000fd5b604051908082528060200260200182016040528015612769578160200160208202803683370190505b50905060005b82811015611d2f576127a784828151811061279a57634e487b7160e01b600052603260045260246000fd5b60200260200101516152ba565b8282815181106127c757634e487b7160e01b600052603260045260246000fd5b6020908102919091010152806127dc81615ed3565b91505061276f565b6000546001600160a01b0316331461280e5760405162461bcd60e51b815260040161105b90615d47565b6001600160a01b03919091166000908152600560205260409020805460ff1916911515919091179055565b6001600160a01b038216600090815260036020526040812080548390811061287157634e487b7160e01b600052603260045260246000fd5b906000526020600020906004020160000154905092915050565b6001600160a01b0381166000908152600360205260408120541580159061290657506014546001600160a01b03831660009081526003602052604081208054429392906128e857634e487b7160e01b600052603260045260246000fd5b9060005260206000209060040201600201546129049190615e2e565b115b156113bb576014546001600160a01b0383166000908152600360205260408120805490919061294557634e487b7160e01b600052603260045260246000fd5b90600052602060002090600402016002015461102b9190615e2e565b6000546001600160a01b0316331461298b5760405162461bcd60e51b815260040161105b90615d47565b6129956000615316565b565b6000546001600160a01b031633146129c15760405162461bcd60e51b815260040161105b90615d47565b6001600160a01b03831660009081526003602052604090208054839081106129f957634e487b7160e01b600052603260045260246000fd5b9060005260206000209060040201600201548111612a705760405162461bcd60e51b815260206004820152602e60248201527f4c61737420636c61696d2074696d652063616e6e6f74206265206265666f726560448201526d206372656174696f6e2074696d6560901b606482015260840161105b565b6001600160a01b0383166000908152600360205260409020805482919084908110612aab57634e487b7160e01b600052603260045260246000fd5b906000526020600020906004020160030181905550505050565b60606000600a546001600160401b03811115612af157634e487b7160e01b600052604160045260246000fd5b604051908082528060200260200182016040528015612b1a578160200160208202803683370190505b50905060005b600a5481101561213457600081815260046020526040902060030154828281518110612b5c57634e487b7160e01b600052603260045260246000fd5b602090810291909101015280612b7181615ed3565b915050612b20565b6000546001600160a01b03163314612ba35760405162461bcd60e51b815260040161105b90615d47565b600a548510612c105760405162461bcd60e51b815260206004820152603360248201527f547279696e6720746f207570646174652061206465706f7369742074797065206044820152721d1a185d08191bd95cc81b9bdd08195e1a5cdd606a1b606482015260840161105b565b6040805160a0810182528681526020808201878152828401878152606084018781526080850187815260008c815260049586905287902095518655925160018601559051600285015551600384015551910155517f7d7db8cea25b20999de9a8af921d61cbb2a474a1e5ab9265ab56ea0cc821cabf90612cb79087908790879087908790948552602085019390935260408401919091526060830152608082015260a00190565b60405180910390a15050505050565b6000546001600160a01b03163314612cf05760405162461bcd60e51b815260040161105b90615d47565b60005b8351811015612d4057612d2e848281518110612d1f57634e487b7160e01b600052603260045260246000fd5b60200260200101518484614b19565b80612d3881615ed3565b915050612cf3565b50505050565b6001600160a01b0381166000908152600360209081526040808320805482518185028101850190935280835260609493849084015b82821015612dd5578382906000526020600020906004020160405180608001604052908160008201548152602001600182015481526020016002820154815260200160038201548152505081526020019060010190612d7b565b5050505090506000815190506000816001600160401b03811115612e0957634e487b7160e01b600052604160045260246000fd5b604051908082528060200260200182016040528015612e32578160200160208202803683370190505b50905060005b82811015611d2f57838181518110612e6057634e487b7160e01b600052603260045260246000fd5b602002602001015160400151828281518110612e8c57634e487b7160e01b600052603260045260246000fd5b602090810291909101015280612ea181615ed3565b915050612e38565b6001600160a01b038116600090815260036020908152604080832080548251818502810185019093528083528493849084015b82821015612f36578382906000526020600020906004020160405180608001604052908160008201548152602001600182015481526020016002820154815260200160038201548152505081526020019060010190612edc565b5050505090506000805b82518110156130175760046000848381518110612f6d57634e487b7160e01b600052603260045260246000fd5b602002602001015160000151815260200190815260200160002060040154838281518110612fab57634e487b7160e01b600052603260045260246000fd5b60200260200101516060015142612fc29190615e79565b111561300557612ff8838281518110612feb57634e487b7160e01b600052603260045260246000fd5b6020026020010151614823565b6130029083615e2e565b91505b8061300f81615ed3565b915050612f40565b509392505050565b6002805414156130415760405162461bcd60e51b815260040161105b90615df7565b60028055600e54610100900460ff161561306d5760405162461bcd60e51b815260040161105b90615dca565b3360009081526006602052604090205460ff161561309d5760405162461bcd60e51b815260040161105b90615d1a565b33600090815260036020908152604080832080548251818502810185019093528083529192909190849084015b828210156131245783829060005260206000209060040201604051806080016040529081600082015481526020016001820154815260200160028201548152602001600382015481525050815260200190600101906130ca565b50505050905060008151116131735760405162461bcd60e51b8152602060048201526015602482015274139bc819195c1bdcda5d081d1bc818d85cda1bdd5d605a1b604482015260640161105b565b6000805b82518110156132d557600460008483815181106131a457634e487b7160e01b600052603260045260246000fd5b602002602001015160000151815260200190815260200160002060010154836000815181106131e357634e487b7160e01b600052603260045260246000fd5b602002602001015160400151426131fa9190615e79565b11156132c35782818151811061322057634e487b7160e01b600052603260045260246000fd5b602002602001015160200151826132379190615e2e565b336000908152600360205260409020805491935042918390811061326b57634e487b7160e01b600052603260045260246000fd5b600091825260208083206003600490930201820193909355338252909152604081208054839081106132ad57634e487b7160e01b600052603260045260246000fd5b9060005260206000209060040201600101819055505b806132cd81615ed3565b915050613177565b50601454826000815181106132fa57634e487b7160e01b600052603260045260246000fd5b602002602001015160400151426133119190615e79565b111561334a57336000908152600360205260409020600101546133349082615e2e565b3360009081526003602052604081206001015590505b6000811161336a5760405162461bcd60e51b815260040161105b90615cee565b3360009081526005602052604090205460ff16156133905761338b81615013565b611bc3565b60006103e8601354836133a39190615e5a565b6133ad9190615e46565b905060006133bb8284615e79565b905081601060008282546133cf9190615e2e565b909155505060115460105411156133e8576133e8615169565b6133f181615013565b505050506001600255565b6000546001600160a01b031633146134265760405162461bcd60e51b815260040161105b90615d47565b601155565b6000546001600160a01b031633146134555760405162461bcd60e51b815260040161105b90615d47565b601355565b60028054141561347c5760405162461bcd60e51b815260040161105b90615df7565b60028055600e54610100900460ff16156134a85760405162461bcd60e51b815260040161105b90615dca565b3360009081526006602052604090205460ff16156134d85760405162461bcd60e51b815260040161105b90615d1a565b33600090815260036020908152604080832080548251818502810185019093528083529192909190849084015b8282101561355f578382906000526020600020906004020160405180608001604052908160008201548152602001600182015481526020016002820154815260200160038201548152505081526020019060010190613505565b50505050905060008151116135c25760405162461bcd60e51b8152602060048201526024808201527f4e6f206465706f73697420746f20636173686f757420696e746572657374732060448201526366726f6d60e01b606482015260840161105b565b6000805b825181101561371157600460008483815181106135f357634e487b7160e01b600052603260045260246000fd5b60200260200101516000015181526020019081526020016000206004015483828151811061363157634e487b7160e01b600052603260045260246000fd5b602002602001015160600151426136489190615e79565b11156136ff5761367e83828151811061367157634e487b7160e01b600052603260045260246000fd5b6020026020010151614d5e565b6136889083615e2e565b91506136ba8382815181106136ad57634e487b7160e01b600052603260045260246000fd5b6020026020010151614e63565b3360009081526003602052604090208054839081106136e957634e487b7160e01b600052603260045260246000fd5b9060005260206000209060040201600301819055505b8061370981615ed3565b9150506135c6565b506000811161336a5760405162461bcd60e51b815260040161105b90615cee565b60009182526001602090815260408084206001600160a01b0393909316845291905290205460ff1690565b60028054141561377f5760405162461bcd60e51b815260040161105b90615df7565b600280553360009081526006602052604090205460ff16156137b35760405162461bcd60e51b815260040161105b90615d1a565b336000908152600360205260409020546138415760405162461bcd60e51b815260206004820152604360248201527f43616e6e6f7420636f6d706f756e6420616666696c6961746520696e7465726560448201527f7374733a207573657220646f6573206e6f74206861766520616e79206465706f6064820152621cda5d60ea1b608482015260a40161105b565b601454336000908152600360205260408120805490919061387257634e487b7160e01b600052603260045260246000fd5b9060005260206000209060040201600201544261388f9190615e79565b1161390c5760405162461bcd60e51b815260206004820152604160248201527f43616e6e6f7420636f6d706f756e6420616666696c6961746520696e7465726560448201527f737473206265666f72652074686520656e64206f66206c6f636b20706572696f6064820152601960fa1b608482015260a40161105b565b336000908152600360205260409020600101548061393c5760405162461bcd60e51b815260040161105b90615cee565b61394760008261488f565b50336000908152600360205260408120600190810191909155600255565b6000546001600160a01b0316331461398f5760405162461bcd60e51b815260040161105b90615d47565b60005b8251811015611dba5781600360008584815181106139c057634e487b7160e01b600052603260045260246000fd5b60200260200101516001600160a01b03166001600160a01b0316815260200190815260200160002060010160008282546139fa9190615e2e565b90915550819050613a0a81615ed3565b915050613992565b6000546001600160a01b03163314613a3c5760405162461bcd60e51b815260040161105b90615d47565b6001600160a01b0383166000908152600360205260409020805482919084908110613a7757634e487b7160e01b600052603260045260246000fd5b906000526020600020906004020160010181905550505050565b6000546001600160a01b03163314613abb5760405162461bcd60e51b815260040161105b90615d47565b60405163a9059cbb60e01b8152336004820152602481018290526001600160a01b0383169063a9059cbb90604401602060405180830381600087803b158015613b0357600080fd5b505af1158015613b17573d6000803e3d6000fd5b505050506040513d601f19601f82011682018060405250810190611dba9190615aab565b6000546001600160a01b03163314613b655760405162461bcd60e51b815260040161105b90615d47565b6001600160a01b03821660009081526003602052604081206001018054839290613b90908490615e2e565b90915550505050565b600280541415613bbb5760405162461bcd60e51b815260040161105b90615df7565b60028055600e54610100900460ff1615613be75760405162461bcd60e51b815260040161105b90615dca565b3360009081526006602052604090205460ff1615613c175760405162461bcd60e51b815260040161105b90615d1a565b336000908152600360205260409020548110613c9b5760405162461bcd60e51b815260206004820152603e60248201527f547279696e6720746f20636173686f757420696e746572657374732066726f6d60448201527f2061206465706f736974207468617420646f6573206e6f742065786973740000606482015260840161105b565b336000908152600360205260408120805483908110613cca57634e487b7160e01b600052603260045260246000fd5b60009182526020808320338452600390915260408320805460049093029091019350613d0e918590811061113257634e487b7160e01b600052603260045260246000fd5b905060008111613d305760405162461bcd60e51b815260040161105b90615cee565b60408051608081018252835481526001840154602082015260028401549181019190915260038301546060820152613d6790614855565b336000908152600360205260409020805485908110613d9657634e487b7160e01b600052603260045260246000fd5b60009182526020808320600360049093020191909101929092553381526005909152604090205460ff161561247e5761247981615013565b6000546001600160a01b03163314613df85760405162461bcd60e51b815260040161105b90615d47565b600780546001600160a01b0319166001600160a01b0392909216919091179055565b6001600160a01b038116600090815260036020908152604080832080548251818502810185019093528083528493849084015b82821015613ea7578382906000526020600020906004020160405180608001604052908160008201548152602001600182015481526020016002820154815260200160038201548152505081526020019060010190613e4d565b5050505090506000805b825181101561301757828181518110613eda57634e487b7160e01b600052603260045260246000fd5b60200260200101516020015182613ef19190615e2e565b915080613efd81615ed3565b915050613eb1565b6000546001600160a01b03163314613f2f5760405162461bcd60e51b815260040161105b90615d47565b600880546001600160a01b0319166001600160a01b0392909216919091179055565b6001600160a01b03821660009081526003602052604081208054613f8e91908490811061113257634e487b7160e01b600052603260045260246000fd5b9392505050565b6001600160a01b0381166000908152600360209081526040808320805482518185028101850190935280835260609493849084015b82821015614024578382906000526020600020906004020160405180608001604052908160008201548152602001600182015481526020016002820154815260200160038201548152505081526020019060010190613fca565b5050505090506000815190506000816001600160401b0381111561405857634e487b7160e01b600052604160045260246000fd5b604051908082528060200260200182016040528015614081578160200160208202803683370190505b50905060005b82811015611d2f57600460008583815181106140b357634e487b7160e01b600052603260045260246000fd5b6020026020010151600001518152602001908152602001600020600401548482815181106140f157634e487b7160e01b600052603260045260246000fd5b602002602001015160600151426141089190615e79565b111561416257614131848281518110612feb57634e487b7160e01b600052603260045260246000fd5b82828151811061415157634e487b7160e01b600052603260045260246000fd5b602002602001018181525050614191565b600082828151811061418457634e487b7160e01b600052603260045260246000fd5b6020026020010181815250505b8061419b81615ed3565b915050614087565b6001600160a01b0381166000908152600360205260408120541580159061425557506001600160a01b03821660009081526003602052604081208054429261420092916112aa57634e487b7160e01b600052603260045260246000fd5b6001600160a01b0384166000908152600360205260408120805490919061423757634e487b7160e01b600052603260045260246000fd5b9060005260206000209060040201600201546142539190615e2e565b115b156113bb576001600160a01b0382166000908152600360205260408120805461429392906112aa57634e487b7160e01b600052603260045260246000fd5b6001600160a01b0383166000908152600360205260408120805490919061294557634e487b7160e01b600052603260045260246000fd5b6000546001600160a01b031633146142f45760405162461bcd60e51b815260040161105b90615d47565b611dba838383614b19565b6000546001600160a01b031633146143295760405162461bcd60e51b815260040161105b90615d47565b612995615169565b6001600160a01b038216600090815260036020526040812080548390811061436957634e487b7160e01b600052603260045260246000fd5b906000526020600020906004020160020154905092915050565b60606000600a546001600160401b038111156143af57634e487b7160e01b600052604160045260246000fd5b6040519080825280602002602001820160405280156143d8578160200160208202803683370190505b50905060005b600a54811015612134576000818152600460208190526040909120015482828151811061441b57634e487b7160e01b600052603260045260246000fd5b60209081029190910101528061443081615ed3565b9150506143de565b600082815260016020819052604090912001546144558133614edd565b611dba8383614fac565b6001600160a01b0381166000908152600360205260408120541580159061102b57506014546001600160a01b03831660009081526003602052604081208054429392906144bc57634e487b7160e01b600052603260045260246000fd5b9060005260206000209060040201600201546144d89190615e2e565b1092915050565b6000546001600160a01b031633146145095760405162461bcd60e51b815260040161105b90615d47565b601655565b6000546001600160a01b031633146145385760405162461bcd60e51b815260040161105b90615d47565b600e80549115156101000261ff0019909216919091179055565b6000546001600160a01b0316331461457c5760405162461bcd60e51b815260040161105b90615d47565b6000600a54116145ce5760405162461bcd60e51b815260206004820152601a60248201527f4e6f206465706f73697420747970657320746f2072656d6f7665000000000000604482015260640161105b565b6145eb6001600a546145e09190615e79565b600080600080612b79565b600a80549060006145fb83615ebc565b91905055507fa17a14a40c5dfd57bd7f5ba315d5236ea20fd743f9181bb7966d573f3f96f2d0600a5460405161463391815260200190565b60405180910390a1565b6000546001600160a01b031633146146675760405162461bcd60e51b815260040161105b90615d47565b612d4084848484615366565b6000546001600160a01b0316331461469d5760405162461bcd60e51b815260040161105b90615d47565b601455565b6000546001600160a01b031633146146cc5760405162461bcd60e51b815260040161105b90615d47565b6001600160a01b0381166147315760405162461bcd60e51b815260206004820152602660248201527f4f776e61626c653a206e6577206f776e657220697320746865207a65726f206160448201526564647265737360d01b606482015260840161105b565b61473a81615316565b50565b6001600160a01b0381166000908152600360205260408120541580159061102b57506001600160a01b03821660009081526003602052604081208054429261479a92916112aa57634e487b7160e01b600052603260045260246000fd5b6001600160a01b038416600090815260036020526040812080549091906144bc57634e487b7160e01b600052603260045260246000fd5b6001600160a01b038216600090815260036020526040812080548390811061480957634e487b7160e01b600052603260045260246000fd5b906000526020600020906004020160030154905092915050565b805160009081526004602081905260408220015460608301516148469042615e79565b11156113bb5761102b82614d5e565b805160009081526004602081905260408220015460608301516148789042615e79565b11156148875761102b82614e63565b506060015190565b600081116148e95760405162461bcd60e51b815260206004820152602160248201527f43616e6e6f7420636f6d706f756e64203020737570706f7274656420746f6b656044820152603760f91b606482015260840161105b565b33600090815260036020526040902080548291908490811061491b57634e487b7160e01b600052603260045260246000fd5b9060005260206000209060040201600101600082825461493b9190615e2e565b909155505060408051338152602081018490529081018290524260608201527f7bc09bcfc0eba02bd51cb337792a03ecdd676bc5d7ab5fa3c0ed3b6cbc854fc39060800160405180910390a15050565b6007546040516370a0823160e01b815233600482015282916001600160a01b0316906370a082319060240160206040518083038186803b1580156149ce57600080fd5b505afa1580156149e2573d6000803e3d6000fd5b505050506040513d601f19601f82011682018060405250810190614a069190615b2b565b1015614a545760405162461bcd60e51b815260206004820152601f60248201527f537570706f7274656420746f6b656e2062616c616e636520746f6f206c6f7700604482015260640161105b565b60008111614aaf5760405162461bcd60e51b815260206004820152602260248201527f43616e6e6f74207472616e73666572203020737570706f7274656420746f6b656044820152616e7360f01b606482015260840161105b565b60006103e8600f5483614ac29190615e5a565b614acc9190615e46565b600854600754919250614aee916001600160a01b03908116913391168561542b565b8060106000828254614b009190615e2e565b90915550506011546010541115611d8f57611d8f615169565b6001600160a01b038316600090815260036020526040902054606411614b9d5760405162461bcd60e51b815260206004820152603360248201527f4d6178696d756d206e756d626572206f66206465706f73697473207265616368604482015272195908199bdc881d1a1a5cc81858d8dbdd5b9d606a1b606482015260840161105b565b600a548210614c16576040805162461bcd60e51b81526020600482015260248101919091527f547279696e6720746f206372656174652061206465706f736974206f6620612060448201527f6465706f7369742074797065207468617420646f6573206e6f74206578697374606482015260840161105b565b60008111614c775760405162461bcd60e51b815260206004820152602860248201527f43616e6e6f74206372656174652061206465706f7369742077697468206120736044820152670697a65206f6620360c41b606482015260840161105b565b6001600160a01b03831660009081526003602081815260408084208151608081018352878152808401878152429382018481526060830194855283546001818101865594895295882092516004909602909201948555519184019190915551600283015551910155600b805491614ced83615ed3565b919050555081600c6000828254614d049190615e2e565b9091555050604080516001600160a01b0385168152602081018490529081018290524260608201527fe61c124e1d4e395c22e89f41986b65e645bc4010edd8997e11525b40a3b4509b9060800160405180910390a1505050565b8051600081815260046020819052604082200154909190614d915760405162461bcd60e51b815260040161105b90615d7c565b600081815260046020526040902060030154614e085760405162461bcd60e51b815260206004820152603060248201527f546865206465706f736974206d756c7469706c696572206f662074686973206460448201526f065706f736974207479706520697320360841b606482015260840161105b565b600081815260046020818152604090922060038101549286015191015460608601516103e893929190614e3b9042615e79565b614e459190615e46565b614e4f9190615e5a565b614e599190615e5a565b613f8e9190615e46565b805160008181526004602081905260408220015490919080614e975760405162461bcd60e51b815260040161105b90615d7c565b6060840151600082614ea98342615e79565b614eb39190615eee565b614ebd8342615e79565b614ec79190615e79565b9050614ed38183615e2e565b9695505050505050565b614ee78282613732565b611d8f57614eff816001600160a01b03166014615485565b614f0a836020615485565b604051602001614f1b929190615c02565b60408051601f198184030181529082905262461bcd60e51b825261105b91600401615cbb565b614f4b8282613732565b611d8f5760008281526001602081815260408084206001600160a01b0386168086529252808420805460ff19169093179092559051339285917f2f8788117e7eff1d82e926ec794901d17c78024a50270940304540a733656f0d9190a45050565b614fb68282613732565b15611d8f5760008281526001602090815260408083206001600160a01b0385168085529252808320805460ff1916905551339285917ff6391f5c32d9c69d2a47ea670b442974b53935d1edc7fd64eb21e047a839171b9190a45050565b600e54610100900460ff161561503b5760405162461bcd60e51b815260040161105b90615dca565b6000811161508b5760405162461bcd60e51b815260206004820181905260248201527f43616e6e6f7420636173686f7574203020737570706f7274656420746f6b656e604482015260640161105b565b60075460405163a9059cbb60e01b8152336004820152602481018390526001600160a01b039091169063a9059cbb90604401602060405180830381600087803b1580156150d757600080fd5b505af11580156150eb573d6000803e3d6000fd5b505050506040513d601f19601f8201168201806040525081019061510f9190615aab565b5080600d60008282546151229190615e2e565b90915550506040805133815260208101839052428183015290517f7497ffb9357d85ec1f890da2b53eac75fc0e77a7fa9aae7a96c959327e46b0789181900360600190a150565b6000601054116151eb5760405162461bcd60e51b815260206004820152604160248201527f4e6f7420656e6f75676820737570706f7274656420746f6b656e7320696e206660448201527f65652062616c616e636520746f2073656e6420746f20666565732077616c6c656064820152601d60fa1b608482015260a40161105b565b60075460095460105460405163a9059cbb60e01b81526001600160a01b039283166004820152602481019190915291169063a9059cbb90604401602060405180830381600087803b15801561523f57600080fd5b505af1158015615253573d6000803e3d6000fd5b505050506040513d601f19601f820116820180604052508101906152779190615aab565b507f1395847ab009447b131620f88f79b3b72d38ddade3e8773d382458d8e50b28726010546040516152ab91815260200190565b60405180910390a16000601055565b80516000818152600460208190526040822001546060840151919291836152e18242615e79565b90506000838211156152fe576152f78483615eee565b9050615301565b50805b61530b8185615e79565b979650505050505050565b600080546001600160a01b038381166001600160a01b0319831681178455604051919092169283917f8be0079c531659141344cd1fd0a4f28419497f9722a3daafe3b4186f6b6457e09190a35050565b6040805160a08082018352600a805480845260208085018a81528587018a815260608088018b81526080808a018c815260009788526004808852978c90209a518b55945160018b0155925160028a015551600389015591519690930195909555915485519081529182018990529381018790529182018590529181018390527f7d7db8cea25b20999de9a8af921d61cbb2a474a1e5ab9265ab56ea0cc821cabf910160405180910390a1600a805490600061542083615ed3565b919050555050505050565b604080516001600160a01b0385811660248301528416604482015260648082018490528251808303909101815260849091019091526020810180516001600160e01b03166323b872dd60e01b179052612d40908590615666565b60606000615494836002615e5a565b61549f906002615e2e565b6001600160401b038111156154c457634e487b7160e01b600052604160045260246000fd5b6040519080825280601f01601f1916602001820160405280156154ee576020820181803683370190505b509050600360fc1b8160008151811061551757634e487b7160e01b600052603260045260246000fd5b60200101906001600160f81b031916908160001a905350600f60fb1b8160018151811061555457634e487b7160e01b600052603260045260246000fd5b60200101906001600160f81b031916908160001a9053506000615578846002615e5a565b615583906001615e2e565b90505b6001811115615617576f181899199a1a9b1b9c1cb0b131b232b360811b85600f16601081106155c557634e487b7160e01b600052603260045260246000fd5b1a60f81b8282815181106155e957634e487b7160e01b600052603260045260246000fd5b60200101906001600160f81b031916908160001a90535060049490941c9361561081615ebc565b9050615586565b508315613f8e5760405162461bcd60e51b815260206004820181905260248201527f537472696e67733a20686578206c656e67746820696e73756666696369656e74604482015260640161105b565b60006156bb826040518060400160405280602081526020017f5361666545524332303a206c6f772d6c6576656c2063616c6c206661696c6564815250856001600160a01b03166157389092919063ffffffff16565b805190915015611dba57808060200190518101906156d99190615aab565b611dba5760405162461bcd60e51b815260206004820152602a60248201527f5361666545524332303a204552433230206f7065726174696f6e20646964206e6044820152691bdd081cdd58d8d9595960b21b606482015260840161105b565b6060615747848460008561574f565b949350505050565b6060824710156157b05760405162461bcd60e51b815260206004820152602660248201527f416464726573733a20696e73756666696369656e742062616c616e636520666f6044820152651c8818d85b1b60d21b606482015260840161105b565b843b6157fe5760405162461bcd60e51b815260206004820152601d60248201527f416464726573733a2063616c6c20746f206e6f6e2d636f6e7472616374000000604482015260640161105b565b600080866001600160a01b0316858760405161581a9190615be6565b60006040518083038185875af1925050503d8060008114615857576040519150601f19603f3d011682016040523d82523d6000602084013e61585c565b606091505b509150915061530b82828660608315615876575081613f8e565b8251156158865782518084602001fd5b8160405162461bcd60e51b815260040161105b9190615cbb565b80356113c381615f44565b600082601f8301126158bb578081fd5b813560206001600160401b03808311156158d7576158d7615f2e565b8260051b604051601f19603f830116810181811084821117156158fc576158fc615f2e565b6040528481528381019250868401828801850189101561591a578687fd5b8692505b858310156159435761592f816158a0565b84529284019260019290920191840161591e565b50979650505050505050565b600060208284031215615960578081fd5b8135613f8e81615f44565b6000806040838503121561597d578081fd5b823561598881615f44565b9150602083013561599881615f59565b809150509250929050565b600080604083850312156159b5578182fd5b82356159c081615f44565b946020939093013593505050565b6000806000606084860312156159e2578081fd5b83356159ed81615f44565b95602085013595506040909401359392505050565b60008060408385031215615a14578182fd5b82356001600160401b03811115615a29578283fd5b615a35858286016158ab565b95602094909401359450505050565b600080600060608486031215615a58578283fd5b83356001600160401b03811115615a6d578384fd5b615a79868287016158ab565b9660208601359650604090950135949350505050565b600060208284031215615aa0578081fd5b8135613f8e81615f59565b600060208284031215615abc578081fd5b8151613f8e81615f59565b600060208284031215615ad8578081fd5b5035919050565b60008060408385031215615af1578182fd5b82359150602083013561599881615f44565b600060208284031215615b14578081fd5b81356001600160e01b031981168114613f8e578182fd5b600060208284031215615b3c578081fd5b5051919050565b600080600060608486031215615b57578283fd5b83359250602084013591506040840135615b7081615f44565b809150509250925092565b60008060008060808587031215615b90578182fd5b5050823594602084013594506040840135936060013592509050565b600080600080600060a08688031215615bc3578283fd5b505083359560208501359550604085013594606081013594506080013592509050565b60008251615bf8818460208701615e90565b9190910192915050565b7f416363657373436f6e74726f6c3a206163636f756e7420000000000000000000815260008351615c3a816017850160208801615e90565b7001034b99036b4b9b9b4b733903937b6329607d1b6017918401918201528351615c6b816028840160208801615e90565b01602801949350505050565b6020808252825182820181905260009190848201906040850190845b81811015615caf57835183529284019291840191600101615c93565b50909695505050505050565b6020815260008251806020840152615cda816040850160208701615e90565b601f01601f19169190910160400192915050565b602080825260129082015271139bdd1a1a5b99c81d1bc818d85cda1bdd5d60721b604082015260600190565b602080825260139082015272155cd95c881a5cc8189b1858dadb1a5cdd1959606a1b604082015260600190565b6020808252818101527f4f776e61626c653a2063616c6c6572206973206e6f7420746865206f776e6572604082015260600190565b6020808252602e908201527f546865206465706f73697420696e74657276616c206f6620746869732064657060408201526d06f736974207479706520697320360941b606082015260800190565b60208082526013908201527210d85cda1bdd5d1cc8185c99481c185d5cd959606a1b604082015260600190565b6020808252601f908201527f5265656e7472616e637947756172643a207265656e7472616e742063616c6c00604082015260600190565b60008219821115615e4157615e41615f02565b500190565b600082615e5557615e55615f18565b500490565b6000816000190483118215151615615e7457615e74615f02565b500290565b600082821015615e8b57615e8b615f02565b500390565b60005b83811015615eab578181015183820152602001615e93565b83811115612d405750506000910152565b600081615ecb57615ecb615f02565b506000190190565b6000600019821415615ee757615ee7615f02565b5060010190565b600082615efd57615efd615f18565b500690565b634e487b7160e01b600052601160045260246000fd5b634e487b7160e01b600052601260045260246000fd5b634e487b7160e01b600052604160045260246000fd5b6001600160a01b038116811461473a57600080fd5b801515811461473a57600080fdfea2646970667358221220314ad5d787be2b5687a0e6ada7c1bd2725a31fc8738dd839f5b17a8bd311e06f64736f6c63430008040033",
  "linkReferences": {},
  "deployedLinkReferences": {}
}